{
	"contracts/captchaVerfier.sol": {
		"CaptchaVerifier": {
			"abi": [
				{
					"inputs": [
						{
							"internalType": "address",
							"name": "",
							"type": "address"
						}
					],
					"name": "captchas",
					"outputs": [
						{
							"internalType": "string",
							"name": "question",
							"type": "string"
						},
						{
							"internalType": "string",
							"name": "answerHash",
							"type": "string"
						},
						{
							"internalType": "bool",
							"name": "isActive",
							"type": "bool"
						}
					],
					"stateMutability": "view",
					"type": "function"
				},
				{
					"inputs": [
						{
							"internalType": "string",
							"name": "question",
							"type": "string"
						},
						{
							"internalType": "string",
							"name": "answerHash",
							"type": "string"
						}
					],
					"name": "createCaptcha",
					"outputs": [],
					"stateMutability": "nonpayable",
					"type": "function"
				},
				{
					"inputs": [],
					"name": "deactivateCaptcha",
					"outputs": [],
					"stateMutability": "nonpayable",
					"type": "function"
				},
				{
					"inputs": [
						{
							"internalType": "string",
							"name": "answer",
							"type": "string"
						}
					],
					"name": "verifyCaptcha",
					"outputs": [
						{
							"internalType": "bool",
							"name": "",
							"type": "bool"
						}
					],
					"stateMutability": "view",
					"type": "function"
				}
			],
			"devdoc": {
				"kind": "dev",
				"methods": {},
				"version": 1
			},
			"evm": {
				"assembly": "    /* \"contracts/captchaVerfier.sol\":60:909  contract CaptchaVerifier {... */\n  mstore(0x40, 0x80)\n  callvalue\n  dup1\n  iszero\n  tag_1\n  jumpi\n  0x00\n  dup1\n  revert\ntag_1:\n  pop\n  dataSize(sub_0)\n  dup1\n  dataOffset(sub_0)\n  0x00\n  codecopy\n  0x00\n  return\nstop\n\nsub_0: assembly {\n        /* \"contracts/captchaVerfier.sol\":60:909  contract CaptchaVerifier {... */\n      mstore(0x40, 0x80)\n      callvalue\n      dup1\n      iszero\n      tag_1\n      jumpi\n      0x00\n      dup1\n      revert\n    tag_1:\n      pop\n      jumpi(tag_2, lt(calldatasize, 0x04))\n      shr(0xe0, calldataload(0x00))\n      dup1\n      0x6fe2646f\n      eq\n      tag_3\n      jumpi\n      dup1\n      0x7e1693a7\n      eq\n      tag_4\n      jumpi\n      dup1\n      0x8eb68a88\n      eq\n      tag_5\n      jumpi\n      dup1\n      0xedbb12e4\n      eq\n      tag_6\n      jumpi\n    tag_2:\n      0x00\n      dup1\n      revert\n        /* \"contracts/captchaVerfier.sol\":253:494  function createCaptcha(string memory question, string memory answerHash) public {... */\n    tag_3:\n      tag_7\n      0x04\n      dup1\n      calldatasize\n      sub\n      dup2\n      add\n      swap1\n      tag_8\n      swap2\n      swap1\n      tag_9\n      jump\t// in\n    tag_8:\n      tag_10\n      jump\t// in\n    tag_7:\n      stop\n        /* \"contracts/captchaVerfier.sol\":201:244  mapping(address => Captcha) public captchas */\n    tag_4:\n      tag_11\n      0x04\n      dup1\n      calldatasize\n      sub\n      dup2\n      add\n      swap1\n      tag_12\n      swap2\n      swap1\n      tag_13\n      jump\t// in\n    tag_12:\n      tag_14\n      jump\t// in\n    tag_11:\n      mload(0x40)\n      tag_15\n      swap4\n      swap3\n      swap2\n      swap1\n      tag_16\n      jump\t// in\n    tag_15:\n      mload(0x40)\n      dup1\n      swap2\n      sub\n      swap1\n      return\n        /* \"contracts/captchaVerfier.sol\":814:906  function deactivateCaptcha() public {... */\n    tag_5:\n      tag_17\n      tag_18\n      jump\t// in\n    tag_17:\n      stop\n        /* \"contracts/captchaVerfier.sol\":502:806  function verifyCaptcha(string memory answer) public view returns (bool) {... */\n    tag_6:\n      tag_19\n      0x04\n      dup1\n      calldatasize\n      sub\n      dup2\n      add\n      swap1\n      tag_20\n      swap2\n      swap1\n      tag_21\n      jump\t// in\n    tag_20:\n      tag_22\n      jump\t// in\n    tag_19:\n      mload(0x40)\n      tag_23\n      swap2\n      swap1\n      tag_24\n      jump\t// in\n    tag_23:\n      mload(0x40)\n      dup1\n      swap2\n      sub\n      swap1\n      return\n        /* \"contracts/captchaVerfier.sol\":253:494  function createCaptcha(string memory question, string memory answerHash) public {... */\n    tag_10:\n        /* \"contracts/captchaVerfier.sol\":367:486  Captcha({... */\n      mload(0x40)\n      dup1\n      0x60\n      add\n      0x40\n      mstore\n      dup1\n        /* \"contracts/captchaVerfier.sol\":400:408  question */\n      dup4\n        /* \"contracts/captchaVerfier.sol\":367:486  Captcha({... */\n      dup2\n      mstore\n      0x20\n      add\n        /* \"contracts/captchaVerfier.sol\":435:445  answerHash */\n      dup3\n        /* \"contracts/captchaVerfier.sol\":367:486  Captcha({... */\n      dup2\n      mstore\n      0x20\n      add\n        /* \"contracts/captchaVerfier.sol\":470:474  true */\n      0x01\n        /* \"contracts/captchaVerfier.sol\":367:486  Captcha({... */\n      iszero\n      iszero\n      dup2\n      mstore\n      pop\n        /* \"contracts/captchaVerfier.sol\":344:352  captchas */\n      0x00\n        /* \"contracts/captchaVerfier.sol\":344:364  captchas[msg.sender] */\n      dup1\n        /* \"contracts/captchaVerfier.sol\":353:363  msg.sender */\n      caller\n        /* \"contracts/captchaVerfier.sol\":344:364  captchas[msg.sender] */\n      0xffffffffffffffffffffffffffffffffffffffff\n      and\n      0xffffffffffffffffffffffffffffffffffffffff\n      and\n      dup2\n      mstore\n      0x20\n      add\n      swap1\n      dup2\n      mstore\n      0x20\n      add\n      0x00\n      keccak256\n        /* \"contracts/captchaVerfier.sol\":344:486  captchas[msg.sender] = Captcha({... */\n      0x00\n      dup3\n      add\n      mload\n      dup2\n      0x00\n      add\n      swap1\n      dup2\n      tag_26\n      swap2\n      swap1\n      tag_27\n      jump\t// in\n    tag_26:\n      pop\n      0x20\n      dup3\n      add\n      mload\n      dup2\n      0x01\n      add\n      swap1\n      dup2\n      tag_28\n      swap2\n      swap1\n      tag_27\n      jump\t// in\n    tag_28:\n      pop\n      0x40\n      dup3\n      add\n      mload\n      dup2\n      0x02\n      add\n      exp(0x0100, 0x00)\n      dup2\n      sload\n      dup2\n      0xff\n      mul\n      not\n      and\n      swap1\n      dup4\n      iszero\n      iszero\n      mul\n      or\n      swap1\n      sstore\n      pop\n      swap1\n      pop\n      pop\n        /* \"contracts/captchaVerfier.sol\":253:494  function createCaptcha(string memory question, string memory answerHash) public {... */\n      pop\n      pop\n      jump\t// out\n        /* \"contracts/captchaVerfier.sol\":201:244  mapping(address => Captcha) public captchas */\n    tag_14:\n      mstore(0x20, 0x00)\n      dup1\n      0x00\n      mstore\n      keccak256(0x00, 0x40)\n      0x00\n      swap2\n      pop\n      swap1\n      pop\n      dup1\n      0x00\n      add\n      dup1\n      sload\n      tag_29\n      swap1\n      tag_30\n      jump\t// in\n    tag_29:\n      dup1\n      0x1f\n      add\n      0x20\n      dup1\n      swap2\n      div\n      mul\n      0x20\n      add\n      mload(0x40)\n      swap1\n      dup2\n      add\n      0x40\n      mstore\n      dup1\n      swap3\n      swap2\n      swap1\n      dup2\n      dup2\n      mstore\n      0x20\n      add\n      dup3\n      dup1\n      sload\n      tag_31\n      swap1\n      tag_30\n      jump\t// in\n    tag_31:\n      dup1\n      iszero\n      tag_32\n      jumpi\n      dup1\n      0x1f\n      lt\n      tag_33\n      jumpi\n      0x0100\n      dup1\n      dup4\n      sload\n      div\n      mul\n      dup4\n      mstore\n      swap2\n      0x20\n      add\n      swap2\n      jump(tag_32)\n    tag_33:\n      dup3\n      add\n      swap2\n      swap1\n      0x00\n      mstore\n      keccak256(0x00, 0x20)\n      swap1\n    tag_34:\n      dup2\n      sload\n      dup2\n      mstore\n      swap1\n      0x01\n      add\n      swap1\n      0x20\n      add\n      dup1\n      dup4\n      gt\n      tag_34\n      jumpi\n      dup3\n      swap1\n      sub\n      0x1f\n      and\n      dup3\n      add\n      swap2\n    tag_32:\n      pop\n      pop\n      pop\n      pop\n      pop\n      swap1\n      dup1\n      0x01\n      add\n      dup1\n      sload\n      tag_35\n      swap1\n      tag_30\n      jump\t// in\n    tag_35:\n      dup1\n      0x1f\n      add\n      0x20\n      dup1\n      swap2\n      div\n      mul\n      0x20\n      add\n      mload(0x40)\n      swap1\n      dup2\n      add\n      0x40\n      mstore\n      dup1\n      swap3\n      swap2\n      swap1\n      dup2\n      dup2\n      mstore\n      0x20\n      add\n      dup3\n      dup1\n      sload\n      tag_36\n      swap1\n      tag_30\n      jump\t// in\n    tag_36:\n      dup1\n      iszero\n      tag_37\n      jumpi\n      dup1\n      0x1f\n      lt\n      tag_38\n      jumpi\n      0x0100\n      dup1\n      dup4\n      sload\n      div\n      mul\n      dup4\n      mstore\n      swap2\n      0x20\n      add\n      swap2\n      jump(tag_37)\n    tag_38:\n      dup3\n      add\n      swap2\n      swap1\n      0x00\n      mstore\n      keccak256(0x00, 0x20)\n      swap1\n    tag_39:\n      dup2\n      sload\n      dup2\n      mstore\n      swap1\n      0x01\n      add\n      swap1\n      0x20\n      add\n      dup1\n      dup4\n      gt\n      tag_39\n      jumpi\n      dup3\n      swap1\n      sub\n      0x1f\n      and\n      dup3\n      add\n      swap2\n    tag_37:\n      pop\n      pop\n      pop\n      pop\n      pop\n      swap1\n      dup1\n      0x02\n      add\n      0x00\n      swap1\n      sload\n      swap1\n      0x0100\n      exp\n      swap1\n      div\n      0xff\n      and\n      swap1\n      pop\n      dup4\n      jump\t// out\n        /* \"contracts/captchaVerfier.sol\":814:906  function deactivateCaptcha() public {... */\n    tag_18:\n        /* \"contracts/captchaVerfier.sol\":893:898  false */\n      0x00\n        /* \"contracts/captchaVerfier.sol\":861:869  captchas */\n      dup1\n        /* \"contracts/captchaVerfier.sol\":861:881  captchas[msg.sender] */\n      0x00\n        /* \"contracts/captchaVerfier.sol\":870:880  msg.sender */\n      caller\n        /* \"contracts/captchaVerfier.sol\":861:881  captchas[msg.sender] */\n      0xffffffffffffffffffffffffffffffffffffffff\n      and\n      0xffffffffffffffffffffffffffffffffffffffff\n      and\n      dup2\n      mstore\n      0x20\n      add\n      swap1\n      dup2\n      mstore\n      0x20\n      add\n      0x00\n      keccak256\n        /* \"contracts/captchaVerfier.sol\":861:890  captchas[msg.sender].isActive */\n      0x02\n      add\n      0x00\n        /* \"contracts/captchaVerfier.sol\":861:898  captchas[msg.sender].isActive = false */\n      0x0100\n      exp\n      dup2\n      sload\n      dup2\n      0xff\n      mul\n      not\n      and\n      swap1\n      dup4\n      iszero\n      iszero\n      mul\n      or\n      swap1\n      sstore\n      pop\n        /* \"contracts/captchaVerfier.sol\":814:906  function deactivateCaptcha() public {... */\n      jump\t// out\n        /* \"contracts/captchaVerfier.sol\":502:806  function verifyCaptcha(string memory answer) public view returns (bool) {... */\n    tag_22:\n        /* \"contracts/captchaVerfier.sol\":568:572  bool */\n      0x00\n        /* \"contracts/captchaVerfier.sol\":585:608  Captcha storage captcha */\n      dup1\n        /* \"contracts/captchaVerfier.sol\":611:619  captchas */\n      0x00\n        /* \"contracts/captchaVerfier.sol\":611:631  captchas[msg.sender] */\n      dup1\n        /* \"contracts/captchaVerfier.sol\":620:630  msg.sender */\n      caller\n        /* \"contracts/captchaVerfier.sol\":611:631  captchas[msg.sender] */\n      0xffffffffffffffffffffffffffffffffffffffff\n      and\n      0xffffffffffffffffffffffffffffffffffffffff\n      and\n      dup2\n      mstore\n      0x20\n      add\n      swap1\n      dup2\n      mstore\n      0x20\n      add\n      0x00\n      keccak256\n        /* \"contracts/captchaVerfier.sol\":585:631  Captcha storage captcha = captchas[msg.sender] */\n      swap1\n      pop\n        /* \"contracts/captchaVerfier.sol\":650:657  captcha */\n      dup1\n        /* \"contracts/captchaVerfier.sol\":650:666  captcha.isActive */\n      0x02\n      add\n      0x00\n      swap1\n      sload\n      swap1\n      0x0100\n      exp\n      swap1\n      div\n      0xff\n      and\n        /* \"contracts/captchaVerfier.sol\":642:692  require(captcha.isActive, \"Captcha is not active\") */\n      tag_42\n      jumpi\n      mload(0x40)\n      0x08c379a000000000000000000000000000000000000000000000000000000000\n      dup2\n      mstore\n      0x04\n      add\n      tag_43\n      swap1\n      tag_44\n      jump\t// in\n    tag_43:\n      mload(0x40)\n      dup1\n      swap2\n      sub\n      swap1\n      revert\n    tag_42:\n        /* \"contracts/captchaVerfier.sol\":778:785  captcha */\n      dup1\n        /* \"contracts/captchaVerfier.sol\":778:796  captcha.answerHash */\n      0x01\n      add\n        /* \"contracts/captchaVerfier.sol\":761:797  abi.encodePacked(captcha.answerHash) */\n      add(0x20, mload(0x40))\n      tag_45\n      swap2\n      swap1\n      tag_46\n      jump\t// in\n    tag_45:\n      mload(0x40)\n      0x20\n      dup2\n      dup4\n      sub\n      sub\n      dup2\n      mstore\n      swap1\n      0x40\n      mstore\n        /* \"contracts/captchaVerfier.sol\":751:798  keccak256(abi.encodePacked(captcha.answerHash)) */\n      dup1\n      mload\n      swap1\n      0x20\n      add\n      keccak256\n        /* \"contracts/captchaVerfier.sol\":739:745  answer */\n      dup4\n        /* \"contracts/captchaVerfier.sol\":722:746  abi.encodePacked(answer) */\n      add(0x20, mload(0x40))\n      tag_47\n      swap2\n      swap1\n      tag_48\n      jump\t// in\n    tag_47:\n      mload(0x40)\n      0x20\n      dup2\n      dup4\n      sub\n      sub\n      dup2\n      mstore\n      swap1\n      0x40\n      mstore\n        /* \"contracts/captchaVerfier.sol\":712:747  keccak256(abi.encodePacked(answer)) */\n      dup1\n      mload\n      swap1\n      0x20\n      add\n      keccak256\n        /* \"contracts/captchaVerfier.sol\":712:798  keccak256(abi.encodePacked(answer)) == keccak256(abi.encodePacked(captcha.answerHash)) */\n      eq\n        /* \"contracts/captchaVerfier.sol\":705:798  return keccak256(abi.encodePacked(answer)) == keccak256(abi.encodePacked(captcha.answerHash)) */\n      swap2\n      pop\n      pop\n        /* \"contracts/captchaVerfier.sol\":502:806  function verifyCaptcha(string memory answer) public view returns (bool) {... */\n      swap2\n      swap1\n      pop\n      jump\t// out\n        /* \"#utility.yul\":7:82   */\n    tag_49:\n        /* \"#utility.yul\":40:46   */\n      0x00\n        /* \"#utility.yul\":73:75   */\n      0x40\n        /* \"#utility.yul\":67:76   */\n      mload\n        /* \"#utility.yul\":57:76   */\n      swap1\n      pop\n        /* \"#utility.yul\":7:82   */\n      swap1\n      jump\t// out\n        /* \"#utility.yul\":88:205   */\n    tag_50:\n        /* \"#utility.yul\":197:198   */\n      0x00\n        /* \"#utility.yul\":194:195   */\n      dup1\n        /* \"#utility.yul\":187:199   */\n      revert\n        /* \"#utility.yul\":211:328   */\n    tag_51:\n        /* \"#utility.yul\":320:321   */\n      0x00\n        /* \"#utility.yul\":317:318   */\n      dup1\n        /* \"#utility.yul\":310:322   */\n      revert\n        /* \"#utility.yul\":334:451   */\n    tag_52:\n        /* \"#utility.yul\":443:444   */\n      0x00\n        /* \"#utility.yul\":440:441   */\n      dup1\n        /* \"#utility.yul\":433:445   */\n      revert\n        /* \"#utility.yul\":457:574   */\n    tag_53:\n        /* \"#utility.yul\":566:567   */\n      0x00\n        /* \"#utility.yul\":563:564   */\n      dup1\n        /* \"#utility.yul\":556:568   */\n      revert\n        /* \"#utility.yul\":580:682   */\n    tag_54:\n        /* \"#utility.yul\":621:627   */\n      0x00\n        /* \"#utility.yul\":672:674   */\n      0x1f\n        /* \"#utility.yul\":668:675   */\n      not\n        /* \"#utility.yul\":663:665   */\n      0x1f\n        /* \"#utility.yul\":656:661   */\n      dup4\n        /* \"#utility.yul\":652:666   */\n      add\n        /* \"#utility.yul\":648:676   */\n      and\n        /* \"#utility.yul\":638:676   */\n      swap1\n      pop\n        /* \"#utility.yul\":580:682   */\n      swap2\n      swap1\n      pop\n      jump\t// out\n        /* \"#utility.yul\":688:868   */\n    tag_55:\n        /* \"#utility.yul\":736:813   */\n      0x4e487b7100000000000000000000000000000000000000000000000000000000\n        /* \"#utility.yul\":733:734   */\n      0x00\n        /* \"#utility.yul\":726:814   */\n      mstore\n        /* \"#utility.yul\":833:837   */\n      0x41\n        /* \"#utility.yul\":830:831   */\n      0x04\n        /* \"#utility.yul\":823:838   */\n      mstore\n        /* \"#utility.yul\":857:861   */\n      0x24\n        /* \"#utility.yul\":854:855   */\n      0x00\n        /* \"#utility.yul\":847:862   */\n      revert\n        /* \"#utility.yul\":874:1155   */\n    tag_56:\n        /* \"#utility.yul\":957:984   */\n      tag_103\n        /* \"#utility.yul\":979:983   */\n      dup3\n        /* \"#utility.yul\":957:984   */\n      tag_54\n      jump\t// in\n    tag_103:\n        /* \"#utility.yul\":949:955   */\n      dup2\n        /* \"#utility.yul\":945:985   */\n      add\n        /* \"#utility.yul\":1087:1093   */\n      dup2\n        /* \"#utility.yul\":1075:1085   */\n      dup2\n        /* \"#utility.yul\":1072:1094   */\n      lt\n        /* \"#utility.yul\":1051:1069   */\n      0xffffffffffffffff\n        /* \"#utility.yul\":1039:1049   */\n      dup3\n        /* \"#utility.yul\":1036:1070   */\n      gt\n        /* \"#utility.yul\":1033:1095   */\n      or\n        /* \"#utility.yul\":1030:1118   */\n      iszero\n      tag_104\n      jumpi\n        /* \"#utility.yul\":1098:1116   */\n      tag_105\n      tag_55\n      jump\t// in\n    tag_105:\n        /* \"#utility.yul\":1030:1118   */\n    tag_104:\n        /* \"#utility.yul\":1138:1148   */\n      dup1\n        /* \"#utility.yul\":1134:1136   */\n      0x40\n        /* \"#utility.yul\":1127:1149   */\n      mstore\n        /* \"#utility.yul\":917:1155   */\n      pop\n        /* \"#utility.yul\":874:1155   */\n      pop\n      pop\n      jump\t// out\n        /* \"#utility.yul\":1161:1290   */\n    tag_57:\n        /* \"#utility.yul\":1195:1201   */\n      0x00\n        /* \"#utility.yul\":1222:1242   */\n      tag_107\n      tag_49\n      jump\t// in\n    tag_107:\n        /* \"#utility.yul\":1212:1242   */\n      swap1\n      pop\n        /* \"#utility.yul\":1251:1284   */\n      tag_108\n        /* \"#utility.yul\":1279:1283   */\n      dup3\n        /* \"#utility.yul\":1271:1277   */\n      dup3\n        /* \"#utility.yul\":1251:1284   */\n      tag_56\n      jump\t// in\n    tag_108:\n        /* \"#utility.yul\":1161:1290   */\n      swap2\n      swap1\n      pop\n      jump\t// out\n        /* \"#utility.yul\":1296:1604   */\n    tag_58:\n        /* \"#utility.yul\":1358:1362   */\n      0x00\n        /* \"#utility.yul\":1448:1466   */\n      0xffffffffffffffff\n        /* \"#utility.yul\":1440:1446   */\n      dup3\n        /* \"#utility.yul\":1437:1467   */\n      gt\n        /* \"#utility.yul\":1434:1490   */\n      iszero\n      tag_110\n      jumpi\n        /* \"#utility.yul\":1470:1488   */\n      tag_111\n      tag_55\n      jump\t// in\n    tag_111:\n        /* \"#utility.yul\":1434:1490   */\n    tag_110:\n        /* \"#utility.yul\":1508:1537   */\n      tag_112\n        /* \"#utility.yul\":1530:1536   */\n      dup3\n        /* \"#utility.yul\":1508:1537   */\n      tag_54\n      jump\t// in\n    tag_112:\n        /* \"#utility.yul\":1500:1537   */\n      swap1\n      pop\n        /* \"#utility.yul\":1592:1596   */\n      0x20\n        /* \"#utility.yul\":1586:1590   */\n      dup2\n        /* \"#utility.yul\":1582:1597   */\n      add\n        /* \"#utility.yul\":1574:1597   */\n      swap1\n      pop\n        /* \"#utility.yul\":1296:1604   */\n      swap2\n      swap1\n      pop\n      jump\t// out\n        /* \"#utility.yul\":1610:1758   */\n    tag_59:\n        /* \"#utility.yul\":1708:1714   */\n      dup3\n        /* \"#utility.yul\":1703:1706   */\n      dup2\n        /* \"#utility.yul\":1698:1701   */\n      dup4\n        /* \"#utility.yul\":1685:1715   */\n      calldatacopy\n        /* \"#utility.yul\":1749:1750   */\n      0x00\n        /* \"#utility.yul\":1740:1746   */\n      dup4\n        /* \"#utility.yul\":1735:1738   */\n      dup4\n        /* \"#utility.yul\":1731:1747   */\n      add\n        /* \"#utility.yul\":1724:1751   */\n      mstore\n        /* \"#utility.yul\":1610:1758   */\n      pop\n      pop\n      pop\n      jump\t// out\n        /* \"#utility.yul\":1764:2189   */\n    tag_60:\n        /* \"#utility.yul\":1842:1847   */\n      0x00\n        /* \"#utility.yul\":1867:1933   */\n      tag_115\n        /* \"#utility.yul\":1883:1932   */\n      tag_116\n        /* \"#utility.yul\":1925:1931   */\n      dup5\n        /* \"#utility.yul\":1883:1932   */\n      tag_58\n      jump\t// in\n    tag_116:\n        /* \"#utility.yul\":1867:1933   */\n      tag_57\n      jump\t// in\n    tag_115:\n        /* \"#utility.yul\":1858:1933   */\n      swap1\n      pop\n        /* \"#utility.yul\":1956:1962   */\n      dup3\n        /* \"#utility.yul\":1949:1954   */\n      dup2\n        /* \"#utility.yul\":1942:1963   */\n      mstore\n        /* \"#utility.yul\":1994:1998   */\n      0x20\n        /* \"#utility.yul\":1987:1992   */\n      dup2\n        /* \"#utility.yul\":1983:1999   */\n      add\n        /* \"#utility.yul\":2032:2035   */\n      dup5\n        /* \"#utility.yul\":2023:2029   */\n      dup5\n        /* \"#utility.yul\":2018:2021   */\n      dup5\n        /* \"#utility.yul\":2014:2030   */\n      add\n        /* \"#utility.yul\":2011:2036   */\n      gt\n        /* \"#utility.yul\":2008:2120   */\n      iszero\n      tag_117\n      jumpi\n        /* \"#utility.yul\":2039:2118   */\n      tag_118\n      tag_53\n      jump\t// in\n    tag_118:\n        /* \"#utility.yul\":2008:2120   */\n    tag_117:\n        /* \"#utility.yul\":2129:2183   */\n      tag_119\n        /* \"#utility.yul\":2176:2182   */\n      dup5\n        /* \"#utility.yul\":2171:2174   */\n      dup3\n        /* \"#utility.yul\":2166:2169   */\n      dup6\n        /* \"#utility.yul\":2129:2183   */\n      tag_59\n      jump\t// in\n    tag_119:\n        /* \"#utility.yul\":1848:2189   */\n      pop\n        /* \"#utility.yul\":1764:2189   */\n      swap4\n      swap3\n      pop\n      pop\n      pop\n      jump\t// out\n        /* \"#utility.yul\":2209:2549   */\n    tag_61:\n        /* \"#utility.yul\":2265:2270   */\n      0x00\n        /* \"#utility.yul\":2314:2317   */\n      dup3\n        /* \"#utility.yul\":2307:2311   */\n      0x1f\n        /* \"#utility.yul\":2299:2305   */\n      dup4\n        /* \"#utility.yul\":2295:2312   */\n      add\n        /* \"#utility.yul\":2291:2318   */\n      slt\n        /* \"#utility.yul\":2281:2403   */\n      tag_121\n      jumpi\n        /* \"#utility.yul\":2322:2401   */\n      tag_122\n      tag_52\n      jump\t// in\n    tag_122:\n        /* \"#utility.yul\":2281:2403   */\n    tag_121:\n        /* \"#utility.yul\":2439:2445   */\n      dup2\n        /* \"#utility.yul\":2426:2446   */\n      calldataload\n        /* \"#utility.yul\":2464:2543   */\n      tag_123\n        /* \"#utility.yul\":2539:2542   */\n      dup5\n        /* \"#utility.yul\":2531:2537   */\n      dup3\n        /* \"#utility.yul\":2524:2528   */\n      0x20\n        /* \"#utility.yul\":2516:2522   */\n      dup7\n        /* \"#utility.yul\":2512:2529   */\n      add\n        /* \"#utility.yul\":2464:2543   */\n      tag_60\n      jump\t// in\n    tag_123:\n        /* \"#utility.yul\":2455:2543   */\n      swap2\n      pop\n        /* \"#utility.yul\":2271:2549   */\n      pop\n        /* \"#utility.yul\":2209:2549   */\n      swap3\n      swap2\n      pop\n      pop\n      jump\t// out\n        /* \"#utility.yul\":2555:3389   */\n    tag_9:\n        /* \"#utility.yul\":2643:2649   */\n      0x00\n        /* \"#utility.yul\":2651:2657   */\n      dup1\n        /* \"#utility.yul\":2700:2702   */\n      0x40\n        /* \"#utility.yul\":2688:2697   */\n      dup4\n        /* \"#utility.yul\":2679:2686   */\n      dup6\n        /* \"#utility.yul\":2675:2698   */\n      sub\n        /* \"#utility.yul\":2671:2703   */\n      slt\n        /* \"#utility.yul\":2668:2787   */\n      iszero\n      tag_125\n      jumpi\n        /* \"#utility.yul\":2706:2785   */\n      tag_126\n      tag_50\n      jump\t// in\n    tag_126:\n        /* \"#utility.yul\":2668:2787   */\n    tag_125:\n        /* \"#utility.yul\":2854:2855   */\n      0x00\n        /* \"#utility.yul\":2843:2852   */\n      dup4\n        /* \"#utility.yul\":2839:2856   */\n      add\n        /* \"#utility.yul\":2826:2857   */\n      calldataload\n        /* \"#utility.yul\":2884:2902   */\n      0xffffffffffffffff\n        /* \"#utility.yul\":2876:2882   */\n      dup2\n        /* \"#utility.yul\":2873:2903   */\n      gt\n        /* \"#utility.yul\":2870:2987   */\n      iszero\n      tag_127\n      jumpi\n        /* \"#utility.yul\":2906:2985   */\n      tag_128\n      tag_51\n      jump\t// in\n    tag_128:\n        /* \"#utility.yul\":2870:2987   */\n    tag_127:\n        /* \"#utility.yul\":3011:3074   */\n      tag_129\n        /* \"#utility.yul\":3066:3073   */\n      dup6\n        /* \"#utility.yul\":3057:3063   */\n      dup3\n        /* \"#utility.yul\":3046:3055   */\n      dup7\n        /* \"#utility.yul\":3042:3064   */\n      add\n        /* \"#utility.yul\":3011:3074   */\n      tag_61\n      jump\t// in\n    tag_129:\n        /* \"#utility.yul\":3001:3074   */\n      swap3\n      pop\n        /* \"#utility.yul\":2797:3084   */\n      pop\n        /* \"#utility.yul\":3151:3153   */\n      0x20\n        /* \"#utility.yul\":3140:3149   */\n      dup4\n        /* \"#utility.yul\":3136:3154   */\n      add\n        /* \"#utility.yul\":3123:3155   */\n      calldataload\n        /* \"#utility.yul\":3182:3200   */\n      0xffffffffffffffff\n        /* \"#utility.yul\":3174:3180   */\n      dup2\n        /* \"#utility.yul\":3171:3201   */\n      gt\n        /* \"#utility.yul\":3168:3285   */\n      iszero\n      tag_130\n      jumpi\n        /* \"#utility.yul\":3204:3283   */\n      tag_131\n      tag_51\n      jump\t// in\n    tag_131:\n        /* \"#utility.yul\":3168:3285   */\n    tag_130:\n        /* \"#utility.yul\":3309:3372   */\n      tag_132\n        /* \"#utility.yul\":3364:3371   */\n      dup6\n        /* \"#utility.yul\":3355:3361   */\n      dup3\n        /* \"#utility.yul\":3344:3353   */\n      dup7\n        /* \"#utility.yul\":3340:3362   */\n      add\n        /* \"#utility.yul\":3309:3372   */\n      tag_61\n      jump\t// in\n    tag_132:\n        /* \"#utility.yul\":3299:3372   */\n      swap2\n      pop\n        /* \"#utility.yul\":3094:3382   */\n      pop\n        /* \"#utility.yul\":2555:3389   */\n      swap3\n      pop\n      swap3\n      swap1\n      pop\n      jump\t// out\n        /* \"#utility.yul\":3395:3521   */\n    tag_62:\n        /* \"#utility.yul\":3432:3439   */\n      0x00\n        /* \"#utility.yul\":3472:3514   */\n      0xffffffffffffffffffffffffffffffffffffffff\n        /* \"#utility.yul\":3465:3470   */\n      dup3\n        /* \"#utility.yul\":3461:3515   */\n      and\n        /* \"#utility.yul\":3450:3515   */\n      swap1\n      pop\n        /* \"#utility.yul\":3395:3521   */\n      swap2\n      swap1\n      pop\n      jump\t// out\n        /* \"#utility.yul\":3527:3623   */\n    tag_63:\n        /* \"#utility.yul\":3564:3571   */\n      0x00\n        /* \"#utility.yul\":3593:3617   */\n      tag_135\n        /* \"#utility.yul\":3611:3616   */\n      dup3\n        /* \"#utility.yul\":3593:3617   */\n      tag_62\n      jump\t// in\n    tag_135:\n        /* \"#utility.yul\":3582:3617   */\n      swap1\n      pop\n        /* \"#utility.yul\":3527:3623   */\n      swap2\n      swap1\n      pop\n      jump\t// out\n        /* \"#utility.yul\":3629:3751   */\n    tag_64:\n        /* \"#utility.yul\":3702:3726   */\n      tag_137\n        /* \"#utility.yul\":3720:3725   */\n      dup2\n        /* \"#utility.yul\":3702:3726   */\n      tag_63\n      jump\t// in\n    tag_137:\n        /* \"#utility.yul\":3695:3700   */\n      dup2\n        /* \"#utility.yul\":3692:3727   */\n      eq\n        /* \"#utility.yul\":3682:3745   */\n      tag_138\n      jumpi\n        /* \"#utility.yul\":3741:3742   */\n      0x00\n        /* \"#utility.yul\":3738:3739   */\n      dup1\n        /* \"#utility.yul\":3731:3743   */\n      revert\n        /* \"#utility.yul\":3682:3745   */\n    tag_138:\n        /* \"#utility.yul\":3629:3751   */\n      pop\n      jump\t// out\n        /* \"#utility.yul\":3757:3896   */\n    tag_65:\n        /* \"#utility.yul\":3803:3808   */\n      0x00\n        /* \"#utility.yul\":3841:3847   */\n      dup2\n        /* \"#utility.yul\":3828:3848   */\n      calldataload\n        /* \"#utility.yul\":3819:3848   */\n      swap1\n      pop\n        /* \"#utility.yul\":3857:3890   */\n      tag_140\n        /* \"#utility.yul\":3884:3889   */\n      dup2\n        /* \"#utility.yul\":3857:3890   */\n      tag_64\n      jump\t// in\n    tag_140:\n        /* \"#utility.yul\":3757:3896   */\n      swap3\n      swap2\n      pop\n      pop\n      jump\t// out\n        /* \"#utility.yul\":3902:4231   */\n    tag_13:\n        /* \"#utility.yul\":3961:3967   */\n      0x00\n        /* \"#utility.yul\":4010:4012   */\n      0x20\n        /* \"#utility.yul\":3998:4007   */\n      dup3\n        /* \"#utility.yul\":3989:3996   */\n      dup5\n        /* \"#utility.yul\":3985:4008   */\n      sub\n        /* \"#utility.yul\":3981:4013   */\n      slt\n        /* \"#utility.yul\":3978:4097   */\n      iszero\n      tag_142\n      jumpi\n        /* \"#utility.yul\":4016:4095   */\n      tag_143\n      tag_50\n      jump\t// in\n    tag_143:\n        /* \"#utility.yul\":3978:4097   */\n    tag_142:\n        /* \"#utility.yul\":4136:4137   */\n      0x00\n        /* \"#utility.yul\":4161:4214   */\n      tag_144\n        /* \"#utility.yul\":4206:4213   */\n      dup5\n        /* \"#utility.yul\":4197:4203   */\n      dup3\n        /* \"#utility.yul\":4186:4195   */\n      dup6\n        /* \"#utility.yul\":4182:4204   */\n      add\n        /* \"#utility.yul\":4161:4214   */\n      tag_65\n      jump\t// in\n    tag_144:\n        /* \"#utility.yul\":4151:4214   */\n      swap2\n      pop\n        /* \"#utility.yul\":4107:4224   */\n      pop\n        /* \"#utility.yul\":3902:4231   */\n      swap3\n      swap2\n      pop\n      pop\n      jump\t// out\n        /* \"#utility.yul\":4237:4336   */\n    tag_66:\n        /* \"#utility.yul\":4289:4295   */\n      0x00\n        /* \"#utility.yul\":4323:4328   */\n      dup2\n        /* \"#utility.yul\":4317:4329   */\n      mload\n        /* \"#utility.yul\":4307:4329   */\n      swap1\n      pop\n        /* \"#utility.yul\":4237:4336   */\n      swap2\n      swap1\n      pop\n      jump\t// out\n        /* \"#utility.yul\":4342:4511   */\n    tag_67:\n        /* \"#utility.yul\":4426:4437   */\n      0x00\n        /* \"#utility.yul\":4460:4466   */\n      dup3\n        /* \"#utility.yul\":4455:4458   */\n      dup3\n        /* \"#utility.yul\":4448:4467   */\n      mstore\n        /* \"#utility.yul\":4500:4504   */\n      0x20\n        /* \"#utility.yul\":4495:4498   */\n      dup3\n        /* \"#utility.yul\":4491:4505   */\n      add\n        /* \"#utility.yul\":4476:4505   */\n      swap1\n      pop\n        /* \"#utility.yul\":4342:4511   */\n      swap3\n      swap2\n      pop\n      pop\n      jump\t// out\n        /* \"#utility.yul\":4517:4656   */\n    tag_68:\n        /* \"#utility.yul\":4606:4612   */\n      dup3\n        /* \"#utility.yul\":4601:4604   */\n      dup2\n        /* \"#utility.yul\":4596:4599   */\n      dup4\n        /* \"#utility.yul\":4590:4613   */\n      mcopy\n        /* \"#utility.yul\":4647:4648   */\n      0x00\n        /* \"#utility.yul\":4638:4644   */\n      dup4\n        /* \"#utility.yul\":4633:4636   */\n      dup4\n        /* \"#utility.yul\":4629:4645   */\n      add\n        /* \"#utility.yul\":4622:4649   */\n      mstore\n        /* \"#utility.yul\":4517:4656   */\n      pop\n      pop\n      pop\n      jump\t// out\n        /* \"#utility.yul\":4662:5039   */\n    tag_69:\n        /* \"#utility.yul\":4750:4753   */\n      0x00\n        /* \"#utility.yul\":4778:4817   */\n      tag_149\n        /* \"#utility.yul\":4811:4816   */\n      dup3\n        /* \"#utility.yul\":4778:4817   */\n      tag_66\n      jump\t// in\n    tag_149:\n        /* \"#utility.yul\":4833:4904   */\n      tag_150\n        /* \"#utility.yul\":4897:4903   */\n      dup2\n        /* \"#utility.yul\":4892:4895   */\n      dup6\n        /* \"#utility.yul\":4833:4904   */\n      tag_67\n      jump\t// in\n    tag_150:\n        /* \"#utility.yul\":4826:4904   */\n      swap4\n      pop\n        /* \"#utility.yul\":4913:4978   */\n      tag_151\n        /* \"#utility.yul\":4971:4977   */\n      dup2\n        /* \"#utility.yul\":4966:4969   */\n      dup6\n        /* \"#utility.yul\":4959:4963   */\n      0x20\n        /* \"#utility.yul\":4952:4957   */\n      dup7\n        /* \"#utility.yul\":4948:4964   */\n      add\n        /* \"#utility.yul\":4913:4978   */\n      tag_68\n      jump\t// in\n    tag_151:\n        /* \"#utility.yul\":5003:5032   */\n      tag_152\n        /* \"#utility.yul\":5025:5031   */\n      dup2\n        /* \"#utility.yul\":5003:5032   */\n      tag_54\n      jump\t// in\n    tag_152:\n        /* \"#utility.yul\":4998:5001   */\n      dup5\n        /* \"#utility.yul\":4994:5033   */\n      add\n        /* \"#utility.yul\":4987:5033   */\n      swap2\n      pop\n        /* \"#utility.yul\":4754:5039   */\n      pop\n        /* \"#utility.yul\":4662:5039   */\n      swap3\n      swap2\n      pop\n      pop\n      jump\t// out\n        /* \"#utility.yul\":5045:5135   */\n    tag_70:\n        /* \"#utility.yul\":5079:5086   */\n      0x00\n        /* \"#utility.yul\":5122:5127   */\n      dup2\n        /* \"#utility.yul\":5115:5128   */\n      iszero\n        /* \"#utility.yul\":5108:5129   */\n      iszero\n        /* \"#utility.yul\":5097:5129   */\n      swap1\n      pop\n        /* \"#utility.yul\":5045:5135   */\n      swap2\n      swap1\n      pop\n      jump\t// out\n        /* \"#utility.yul\":5141:5250   */\n    tag_71:\n        /* \"#utility.yul\":5222:5243   */\n      tag_155\n        /* \"#utility.yul\":5237:5242   */\n      dup2\n        /* \"#utility.yul\":5222:5243   */\n      tag_70\n      jump\t// in\n    tag_155:\n        /* \"#utility.yul\":5217:5220   */\n      dup3\n        /* \"#utility.yul\":5210:5244   */\n      mstore\n        /* \"#utility.yul\":5141:5250   */\n      pop\n      pop\n      jump\t// out\n        /* \"#utility.yul\":5256:5868   */\n    tag_16:\n        /* \"#utility.yul\":5439:5443   */\n      0x00\n        /* \"#utility.yul\":5477:5479   */\n      0x60\n        /* \"#utility.yul\":5466:5475   */\n      dup3\n        /* \"#utility.yul\":5462:5480   */\n      add\n        /* \"#utility.yul\":5454:5480   */\n      swap1\n      pop\n        /* \"#utility.yul\":5526:5535   */\n      dup2\n        /* \"#utility.yul\":5520:5524   */\n      dup2\n        /* \"#utility.yul\":5516:5536   */\n      sub\n        /* \"#utility.yul\":5512:5513   */\n      0x00\n        /* \"#utility.yul\":5501:5510   */\n      dup4\n        /* \"#utility.yul\":5497:5514   */\n      add\n        /* \"#utility.yul\":5490:5537   */\n      mstore\n        /* \"#utility.yul\":5554:5632   */\n      tag_157\n        /* \"#utility.yul\":5627:5631   */\n      dup2\n        /* \"#utility.yul\":5618:5624   */\n      dup7\n        /* \"#utility.yul\":5554:5632   */\n      tag_69\n      jump\t// in\n    tag_157:\n        /* \"#utility.yul\":5546:5632   */\n      swap1\n      pop\n        /* \"#utility.yul\":5679:5688   */\n      dup2\n        /* \"#utility.yul\":5673:5677   */\n      dup2\n        /* \"#utility.yul\":5669:5689   */\n      sub\n        /* \"#utility.yul\":5664:5666   */\n      0x20\n        /* \"#utility.yul\":5653:5662   */\n      dup4\n        /* \"#utility.yul\":5649:5667   */\n      add\n        /* \"#utility.yul\":5642:5690   */\n      mstore\n        /* \"#utility.yul\":5707:5785   */\n      tag_158\n        /* \"#utility.yul\":5780:5784   */\n      dup2\n        /* \"#utility.yul\":5771:5777   */\n      dup6\n        /* \"#utility.yul\":5707:5785   */\n      tag_69\n      jump\t// in\n    tag_158:\n        /* \"#utility.yul\":5699:5785   */\n      swap1\n      pop\n        /* \"#utility.yul\":5795:5861   */\n      tag_159\n        /* \"#utility.yul\":5857:5859   */\n      0x40\n        /* \"#utility.yul\":5846:5855   */\n      dup4\n        /* \"#utility.yul\":5842:5860   */\n      add\n        /* \"#utility.yul\":5833:5839   */\n      dup5\n        /* \"#utility.yul\":5795:5861   */\n      tag_71\n      jump\t// in\n    tag_159:\n        /* \"#utility.yul\":5256:5868   */\n      swap5\n      swap4\n      pop\n      pop\n      pop\n      pop\n      jump\t// out\n        /* \"#utility.yul\":5874:6383   */\n    tag_21:\n        /* \"#utility.yul\":5943:5949   */\n      0x00\n        /* \"#utility.yul\":5992:5994   */\n      0x20\n        /* \"#utility.yul\":5980:5989   */\n      dup3\n        /* \"#utility.yul\":5971:5978   */\n      dup5\n        /* \"#utility.yul\":5967:5990   */\n      sub\n        /* \"#utility.yul\":5963:5995   */\n      slt\n        /* \"#utility.yul\":5960:6079   */\n      iszero\n      tag_161\n      jumpi\n        /* \"#utility.yul\":5998:6077   */\n      tag_162\n      tag_50\n      jump\t// in\n    tag_162:\n        /* \"#utility.yul\":5960:6079   */\n    tag_161:\n        /* \"#utility.yul\":6146:6147   */\n      0x00\n        /* \"#utility.yul\":6135:6144   */\n      dup3\n        /* \"#utility.yul\":6131:6148   */\n      add\n        /* \"#utility.yul\":6118:6149   */\n      calldataload\n        /* \"#utility.yul\":6176:6194   */\n      0xffffffffffffffff\n        /* \"#utility.yul\":6168:6174   */\n      dup2\n        /* \"#utility.yul\":6165:6195   */\n      gt\n        /* \"#utility.yul\":6162:6279   */\n      iszero\n      tag_163\n      jumpi\n        /* \"#utility.yul\":6198:6277   */\n      tag_164\n      tag_51\n      jump\t// in\n    tag_164:\n        /* \"#utility.yul\":6162:6279   */\n    tag_163:\n        /* \"#utility.yul\":6303:6366   */\n      tag_165\n        /* \"#utility.yul\":6358:6365   */\n      dup5\n        /* \"#utility.yul\":6349:6355   */\n      dup3\n        /* \"#utility.yul\":6338:6347   */\n      dup6\n        /* \"#utility.yul\":6334:6356   */\n      add\n        /* \"#utility.yul\":6303:6366   */\n      tag_61\n      jump\t// in\n    tag_165:\n        /* \"#utility.yul\":6293:6366   */\n      swap2\n      pop\n        /* \"#utility.yul\":6089:6376   */\n      pop\n        /* \"#utility.yul\":5874:6383   */\n      swap3\n      swap2\n      pop\n      pop\n      jump\t// out\n        /* \"#utility.yul\":6389:6599   */\n    tag_24:\n        /* \"#utility.yul\":6476:6480   */\n      0x00\n        /* \"#utility.yul\":6514:6516   */\n      0x20\n        /* \"#utility.yul\":6503:6512   */\n      dup3\n        /* \"#utility.yul\":6499:6517   */\n      add\n        /* \"#utility.yul\":6491:6517   */\n      swap1\n      pop\n        /* \"#utility.yul\":6527:6592   */\n      tag_167\n        /* \"#utility.yul\":6589:6590   */\n      0x00\n        /* \"#utility.yul\":6578:6587   */\n      dup4\n        /* \"#utility.yul\":6574:6591   */\n      add\n        /* \"#utility.yul\":6565:6571   */\n      dup5\n        /* \"#utility.yul\":6527:6592   */\n      tag_71\n      jump\t// in\n    tag_167:\n        /* \"#utility.yul\":6389:6599   */\n      swap3\n      swap2\n      pop\n      pop\n      jump\t// out\n        /* \"#utility.yul\":6605:6785   */\n    tag_72:\n        /* \"#utility.yul\":6653:6730   */\n      0x4e487b7100000000000000000000000000000000000000000000000000000000\n        /* \"#utility.yul\":6650:6651   */\n      0x00\n        /* \"#utility.yul\":6643:6731   */\n      mstore\n        /* \"#utility.yul\":6750:6754   */\n      0x22\n        /* \"#utility.yul\":6747:6748   */\n      0x04\n        /* \"#utility.yul\":6740:6755   */\n      mstore\n        /* \"#utility.yul\":6774:6778   */\n      0x24\n        /* \"#utility.yul\":6771:6772   */\n      0x00\n        /* \"#utility.yul\":6764:6779   */\n      revert\n        /* \"#utility.yul\":6791:7111   */\n    tag_30:\n        /* \"#utility.yul\":6835:6841   */\n      0x00\n        /* \"#utility.yul\":6872:6873   */\n      0x02\n        /* \"#utility.yul\":6866:6870   */\n      dup3\n        /* \"#utility.yul\":6862:6874   */\n      div\n        /* \"#utility.yul\":6852:6874   */\n      swap1\n      pop\n        /* \"#utility.yul\":6919:6920   */\n      0x01\n        /* \"#utility.yul\":6913:6917   */\n      dup3\n        /* \"#utility.yul\":6909:6921   */\n      and\n        /* \"#utility.yul\":6940:6958   */\n      dup1\n        /* \"#utility.yul\":6930:7011   */\n      tag_170\n      jumpi\n        /* \"#utility.yul\":6996:7000   */\n      0x7f\n        /* \"#utility.yul\":6988:6994   */\n      dup3\n        /* \"#utility.yul\":6984:7001   */\n      and\n        /* \"#utility.yul\":6974:7001   */\n      swap2\n      pop\n        /* \"#utility.yul\":6930:7011   */\n    tag_170:\n        /* \"#utility.yul\":7058:7060   */\n      0x20\n        /* \"#utility.yul\":7050:7056   */\n      dup3\n        /* \"#utility.yul\":7047:7061   */\n      lt\n        /* \"#utility.yul\":7027:7045   */\n      dup2\n        /* \"#utility.yul\":7024:7062   */\n      sub\n        /* \"#utility.yul\":7021:7105   */\n      tag_171\n      jumpi\n        /* \"#utility.yul\":7077:7095   */\n      tag_172\n      tag_72\n      jump\t// in\n    tag_172:\n        /* \"#utility.yul\":7021:7105   */\n    tag_171:\n        /* \"#utility.yul\":6842:7111   */\n      pop\n        /* \"#utility.yul\":6791:7111   */\n      swap2\n      swap1\n      pop\n      jump\t// out\n        /* \"#utility.yul\":7117:7258   */\n    tag_73:\n        /* \"#utility.yul\":7166:7170   */\n      0x00\n        /* \"#utility.yul\":7189:7192   */\n      dup2\n        /* \"#utility.yul\":7181:7192   */\n      swap1\n      pop\n        /* \"#utility.yul\":7212:7215   */\n      dup2\n        /* \"#utility.yul\":7209:7210   */\n      0x00\n        /* \"#utility.yul\":7202:7216   */\n      mstore\n        /* \"#utility.yul\":7246:7250   */\n      0x20\n        /* \"#utility.yul\":7243:7244   */\n      0x00\n        /* \"#utility.yul\":7233:7251   */\n      keccak256\n        /* \"#utility.yul\":7225:7251   */\n      swap1\n      pop\n        /* \"#utility.yul\":7117:7258   */\n      swap2\n      swap1\n      pop\n      jump\t// out\n        /* \"#utility.yul\":7264:7357   */\n    tag_74:\n        /* \"#utility.yul\":7301:7307   */\n      0x00\n        /* \"#utility.yul\":7348:7350   */\n      0x20\n        /* \"#utility.yul\":7343:7345   */\n      0x1f\n        /* \"#utility.yul\":7336:7341   */\n      dup4\n        /* \"#utility.yul\":7332:7346   */\n      add\n        /* \"#utility.yul\":7328:7351   */\n      div\n        /* \"#utility.yul\":7318:7351   */\n      swap1\n      pop\n        /* \"#utility.yul\":7264:7357   */\n      swap2\n      swap1\n      pop\n      jump\t// out\n        /* \"#utility.yul\":7363:7470   */\n    tag_75:\n        /* \"#utility.yul\":7407:7415   */\n      0x00\n        /* \"#utility.yul\":7457:7462   */\n      dup3\n        /* \"#utility.yul\":7451:7455   */\n      dup3\n        /* \"#utility.yul\":7447:7463   */\n      shl\n        /* \"#utility.yul\":7426:7463   */\n      swap1\n      pop\n        /* \"#utility.yul\":7363:7470   */\n      swap3\n      swap2\n      pop\n      pop\n      jump\t// out\n        /* \"#utility.yul\":7476:7869   */\n    tag_76:\n        /* \"#utility.yul\":7545:7551   */\n      0x00\n        /* \"#utility.yul\":7595:7596   */\n      0x08\n        /* \"#utility.yul\":7583:7593   */\n      dup4\n        /* \"#utility.yul\":7579:7597   */\n      mul\n        /* \"#utility.yul\":7618:7715   */\n      tag_177\n        /* \"#utility.yul\":7648:7714   */\n      0xffffffffffffffffffffffffffffffffffffffffffffffffffffffffffffffff\n        /* \"#utility.yul\":7637:7646   */\n      dup3\n        /* \"#utility.yul\":7618:7715   */\n      tag_75\n      jump\t// in\n    tag_177:\n        /* \"#utility.yul\":7736:7775   */\n      tag_178\n        /* \"#utility.yul\":7766:7774   */\n      dup7\n        /* \"#utility.yul\":7755:7764   */\n      dup4\n        /* \"#utility.yul\":7736:7775   */\n      tag_75\n      jump\t// in\n    tag_178:\n        /* \"#utility.yul\":7724:7775   */\n      swap6\n      pop\n        /* \"#utility.yul\":7808:7812   */\n      dup1\n        /* \"#utility.yul\":7804:7813   */\n      not\n        /* \"#utility.yul\":7797:7802   */\n      dup5\n        /* \"#utility.yul\":7793:7814   */\n      and\n        /* \"#utility.yul\":7784:7814   */\n      swap4\n      pop\n        /* \"#utility.yul\":7857:7861   */\n      dup1\n        /* \"#utility.yul\":7847:7855   */\n      dup7\n        /* \"#utility.yul\":7843:7862   */\n      and\n        /* \"#utility.yul\":7836:7841   */\n      dup5\n        /* \"#utility.yul\":7833:7863   */\n      or\n        /* \"#utility.yul\":7823:7863   */\n      swap3\n      pop\n        /* \"#utility.yul\":7552:7869   */\n      pop\n      pop\n        /* \"#utility.yul\":7476:7869   */\n      swap4\n      swap3\n      pop\n      pop\n      pop\n      jump\t// out\n        /* \"#utility.yul\":7875:7952   */\n    tag_77:\n        /* \"#utility.yul\":7912:7919   */\n      0x00\n        /* \"#utility.yul\":7941:7946   */\n      dup2\n        /* \"#utility.yul\":7930:7946   */\n      swap1\n      pop\n        /* \"#utility.yul\":7875:7952   */\n      swap2\n      swap1\n      pop\n      jump\t// out\n        /* \"#utility.yul\":7958:8018   */\n    tag_78:\n        /* \"#utility.yul\":7986:7989   */\n      0x00\n        /* \"#utility.yul\":8007:8012   */\n      dup2\n        /* \"#utility.yul\":8000:8012   */\n      swap1\n      pop\n        /* \"#utility.yul\":7958:8018   */\n      swap2\n      swap1\n      pop\n      jump\t// out\n        /* \"#utility.yul\":8024:8166   */\n    tag_79:\n        /* \"#utility.yul\":8074:8083   */\n      0x00\n        /* \"#utility.yul\":8107:8160   */\n      tag_182\n        /* \"#utility.yul\":8125:8159   */\n      tag_183\n        /* \"#utility.yul\":8134:8158   */\n      tag_184\n        /* \"#utility.yul\":8152:8157   */\n      dup5\n        /* \"#utility.yul\":8134:8158   */\n      tag_77\n      jump\t// in\n    tag_184:\n        /* \"#utility.yul\":8125:8159   */\n      tag_78\n      jump\t// in\n    tag_183:\n        /* \"#utility.yul\":8107:8160   */\n      tag_77\n      jump\t// in\n    tag_182:\n        /* \"#utility.yul\":8094:8160   */\n      swap1\n      pop\n        /* \"#utility.yul\":8024:8166   */\n      swap2\n      swap1\n      pop\n      jump\t// out\n        /* \"#utility.yul\":8172:8247   */\n    tag_80:\n        /* \"#utility.yul\":8215:8218   */\n      0x00\n        /* \"#utility.yul\":8236:8241   */\n      dup2\n        /* \"#utility.yul\":8229:8241   */\n      swap1\n      pop\n        /* \"#utility.yul\":8172:8247   */\n      swap2\n      swap1\n      pop\n      jump\t// out\n        /* \"#utility.yul\":8253:8522   */\n    tag_81:\n        /* \"#utility.yul\":8363:8402   */\n      tag_187\n        /* \"#utility.yul\":8394:8401   */\n      dup4\n        /* \"#utility.yul\":8363:8402   */\n      tag_79\n      jump\t// in\n    tag_187:\n        /* \"#utility.yul\":8424:8515   */\n      tag_188\n        /* \"#utility.yul\":8473:8514   */\n      tag_189\n        /* \"#utility.yul\":8497:8513   */\n      dup3\n        /* \"#utility.yul\":8473:8514   */\n      tag_80\n      jump\t// in\n    tag_189:\n        /* \"#utility.yul\":8465:8471   */\n      dup5\n        /* \"#utility.yul\":8458:8462   */\n      dup5\n        /* \"#utility.yul\":8452:8463   */\n      sload\n        /* \"#utility.yul\":8424:8515   */\n      tag_76\n      jump\t// in\n    tag_188:\n        /* \"#utility.yul\":8418:8422   */\n      dup3\n        /* \"#utility.yul\":8411:8516   */\n      sstore\n        /* \"#utility.yul\":8329:8522   */\n      pop\n        /* \"#utility.yul\":8253:8522   */\n      pop\n      pop\n      pop\n      jump\t// out\n        /* \"#utility.yul\":8528:8601   */\n    tag_82:\n        /* \"#utility.yul\":8573:8576   */\n      0x00\n        /* \"#utility.yul\":8528:8601   */\n      swap1\n      jump\t// out\n        /* \"#utility.yul\":8607:8796   */\n    tag_83:\n        /* \"#utility.yul\":8684:8716   */\n      tag_192\n      tag_82\n      jump\t// in\n    tag_192:\n        /* \"#utility.yul\":8725:8790   */\n      tag_193\n        /* \"#utility.yul\":8783:8789   */\n      dup2\n        /* \"#utility.yul\":8775:8781   */\n      dup5\n        /* \"#utility.yul\":8769:8773   */\n      dup5\n        /* \"#utility.yul\":8725:8790   */\n      tag_81\n      jump\t// in\n    tag_193:\n        /* \"#utility.yul\":8660:8796   */\n      pop\n        /* \"#utility.yul\":8607:8796   */\n      pop\n      pop\n      jump\t// out\n        /* \"#utility.yul\":8802:8988   */\n    tag_84:\n        /* \"#utility.yul\":8862:8982   */\n    tag_195:\n        /* \"#utility.yul\":8879:8882   */\n      dup2\n        /* \"#utility.yul\":8872:8877   */\n      dup2\n        /* \"#utility.yul\":8869:8883   */\n      lt\n        /* \"#utility.yul\":8862:8982   */\n      iszero\n      tag_197\n      jumpi\n        /* \"#utility.yul\":8933:8972   */\n      tag_198\n        /* \"#utility.yul\":8970:8971   */\n      0x00\n        /* \"#utility.yul\":8963:8968   */\n      dup3\n        /* \"#utility.yul\":8933:8972   */\n      tag_83\n      jump\t// in\n    tag_198:\n        /* \"#utility.yul\":8906:8907   */\n      0x01\n        /* \"#utility.yul\":8899:8904   */\n      dup2\n        /* \"#utility.yul\":8895:8908   */\n      add\n        /* \"#utility.yul\":8886:8908   */\n      swap1\n      pop\n        /* \"#utility.yul\":8862:8982   */\n      jump(tag_195)\n    tag_197:\n        /* \"#utility.yul\":8802:8988   */\n      pop\n      pop\n      jump\t// out\n        /* \"#utility.yul\":8994:9537   */\n    tag_85:\n        /* \"#utility.yul\":9095:9097   */\n      0x1f\n        /* \"#utility.yul\":9090:9093   */\n      dup3\n        /* \"#utility.yul\":9087:9098   */\n      gt\n        /* \"#utility.yul\":9084:9530   */\n      iszero\n      tag_200\n      jumpi\n        /* \"#utility.yul\":9129:9167   */\n      tag_201\n        /* \"#utility.yul\":9161:9166   */\n      dup2\n        /* \"#utility.yul\":9129:9167   */\n      tag_73\n      jump\t// in\n    tag_201:\n        /* \"#utility.yul\":9213:9242   */\n      tag_202\n        /* \"#utility.yul\":9231:9241   */\n      dup5\n        /* \"#utility.yul\":9213:9242   */\n      tag_74\n      jump\t// in\n    tag_202:\n        /* \"#utility.yul\":9203:9211   */\n      dup2\n        /* \"#utility.yul\":9199:9243   */\n      add\n        /* \"#utility.yul\":9396:9398   */\n      0x20\n        /* \"#utility.yul\":9384:9394   */\n      dup6\n        /* \"#utility.yul\":9381:9399   */\n      lt\n        /* \"#utility.yul\":9378:9427   */\n      iszero\n      tag_203\n      jumpi\n        /* \"#utility.yul\":9417:9425   */\n      dup2\n        /* \"#utility.yul\":9402:9425   */\n      swap1\n      pop\n        /* \"#utility.yul\":9378:9427   */\n    tag_203:\n        /* \"#utility.yul\":9440:9520   */\n      tag_204\n        /* \"#utility.yul\":9496:9518   */\n      tag_205\n        /* \"#utility.yul\":9514:9517   */\n      dup6\n        /* \"#utility.yul\":9496:9518   */\n      tag_74\n      jump\t// in\n    tag_205:\n        /* \"#utility.yul\":9486:9494   */\n      dup4\n        /* \"#utility.yul\":9482:9519   */\n      add\n        /* \"#utility.yul\":9469:9480   */\n      dup3\n        /* \"#utility.yul\":9440:9520   */\n      tag_84\n      jump\t// in\n    tag_204:\n        /* \"#utility.yul\":9099:9530   */\n      pop\n      pop\n        /* \"#utility.yul\":9084:9530   */\n    tag_200:\n        /* \"#utility.yul\":8994:9537   */\n      pop\n      pop\n      pop\n      jump\t// out\n        /* \"#utility.yul\":9543:9660   */\n    tag_86:\n        /* \"#utility.yul\":9597:9605   */\n      0x00\n        /* \"#utility.yul\":9647:9652   */\n      dup3\n        /* \"#utility.yul\":9641:9645   */\n      dup3\n        /* \"#utility.yul\":9637:9653   */\n      shr\n        /* \"#utility.yul\":9616:9653   */\n      swap1\n      pop\n        /* \"#utility.yul\":9543:9660   */\n      swap3\n      swap2\n      pop\n      pop\n      jump\t// out\n        /* \"#utility.yul\":9666:9835   */\n    tag_87:\n        /* \"#utility.yul\":9710:9716   */\n      0x00\n        /* \"#utility.yul\":9743:9794   */\n      tag_208\n        /* \"#utility.yul\":9791:9792   */\n      0x00\n        /* \"#utility.yul\":9787:9793   */\n      not\n        /* \"#utility.yul\":9779:9784   */\n      dup5\n        /* \"#utility.yul\":9776:9777   */\n      0x08\n        /* \"#utility.yul\":9772:9785   */\n      mul\n        /* \"#utility.yul\":9743:9794   */\n      tag_86\n      jump\t// in\n    tag_208:\n        /* \"#utility.yul\":9739:9795   */\n      not\n        /* \"#utility.yul\":9824:9828   */\n      dup1\n        /* \"#utility.yul\":9818:9822   */\n      dup4\n        /* \"#utility.yul\":9814:9829   */\n      and\n        /* \"#utility.yul\":9804:9829   */\n      swap2\n      pop\n        /* \"#utility.yul\":9717:9835   */\n      pop\n        /* \"#utility.yul\":9666:9835   */\n      swap3\n      swap2\n      pop\n      pop\n      jump\t// out\n        /* \"#utility.yul\":9840:10135   */\n    tag_88:\n        /* \"#utility.yul\":9916:9920   */\n      0x00\n        /* \"#utility.yul\":10062:10091   */\n      tag_210\n        /* \"#utility.yul\":10087:10090   */\n      dup4\n        /* \"#utility.yul\":10081:10085   */\n      dup4\n        /* \"#utility.yul\":10062:10091   */\n      tag_87\n      jump\t// in\n    tag_210:\n        /* \"#utility.yul\":10054:10091   */\n      swap2\n      pop\n        /* \"#utility.yul\":10124:10127   */\n      dup3\n        /* \"#utility.yul\":10121:10122   */\n      0x02\n        /* \"#utility.yul\":10117:10128   */\n      mul\n        /* \"#utility.yul\":10111:10115   */\n      dup3\n        /* \"#utility.yul\":10108:10129   */\n      or\n        /* \"#utility.yul\":10100:10129   */\n      swap1\n      pop\n        /* \"#utility.yul\":9840:10135   */\n      swap3\n      swap2\n      pop\n      pop\n      jump\t// out\n        /* \"#utility.yul\":10140:11535   */\n    tag_27:\n        /* \"#utility.yul\":10257:10294   */\n      tag_212\n        /* \"#utility.yul\":10290:10293   */\n      dup3\n        /* \"#utility.yul\":10257:10294   */\n      tag_66\n      jump\t// in\n    tag_212:\n        /* \"#utility.yul\":10359:10377   */\n      0xffffffffffffffff\n        /* \"#utility.yul\":10351:10357   */\n      dup2\n        /* \"#utility.yul\":10348:10378   */\n      gt\n        /* \"#utility.yul\":10345:10401   */\n      iszero\n      tag_213\n      jumpi\n        /* \"#utility.yul\":10381:10399   */\n      tag_214\n      tag_55\n      jump\t// in\n    tag_214:\n        /* \"#utility.yul\":10345:10401   */\n    tag_213:\n        /* \"#utility.yul\":10425:10463   */\n      tag_215\n        /* \"#utility.yul\":10457:10461   */\n      dup3\n        /* \"#utility.yul\":10451:10462   */\n      sload\n        /* \"#utility.yul\":10425:10463   */\n      tag_30\n      jump\t// in\n    tag_215:\n        /* \"#utility.yul\":10510:10577   */\n      tag_216\n        /* \"#utility.yul\":10570:10576   */\n      dup3\n        /* \"#utility.yul\":10562:10568   */\n      dup3\n        /* \"#utility.yul\":10556:10560   */\n      dup6\n        /* \"#utility.yul\":10510:10577   */\n      tag_85\n      jump\t// in\n    tag_216:\n        /* \"#utility.yul\":10604:10605   */\n      0x00\n        /* \"#utility.yul\":10628:10632   */\n      0x20\n        /* \"#utility.yul\":10615:10632   */\n      swap1\n      pop\n        /* \"#utility.yul\":10660:10662   */\n      0x1f\n        /* \"#utility.yul\":10652:10658   */\n      dup4\n        /* \"#utility.yul\":10649:10663   */\n      gt\n        /* \"#utility.yul\":10677:10678   */\n      0x01\n        /* \"#utility.yul\":10672:11290   */\n      dup2\n      eq\n      tag_218\n      jumpi\n        /* \"#utility.yul\":11334:11335   */\n      0x00\n        /* \"#utility.yul\":11351:11357   */\n      dup5\n        /* \"#utility.yul\":11348:11425   */\n      iszero\n      tag_219\n      jumpi\n        /* \"#utility.yul\":11400:11409   */\n      dup3\n        /* \"#utility.yul\":11395:11398   */\n      dup8\n        /* \"#utility.yul\":11391:11410   */\n      add\n        /* \"#utility.yul\":11385:11411   */\n      mload\n        /* \"#utility.yul\":11376:11411   */\n      swap1\n      pop\n        /* \"#utility.yul\":11348:11425   */\n    tag_219:\n        /* \"#utility.yul\":11451:11518   */\n      tag_220\n        /* \"#utility.yul\":11511:11517   */\n      dup6\n        /* \"#utility.yul\":11504:11509   */\n      dup3\n        /* \"#utility.yul\":11451:11518   */\n      tag_88\n      jump\t// in\n    tag_220:\n        /* \"#utility.yul\":11445:11449   */\n      dup7\n        /* \"#utility.yul\":11438:11519   */\n      sstore\n        /* \"#utility.yul\":11307:11529   */\n      pop\n        /* \"#utility.yul\":10642:11529   */\n      jump(tag_217)\n        /* \"#utility.yul\":10672:11290   */\n    tag_218:\n        /* \"#utility.yul\":10724:10728   */\n      0x1f\n        /* \"#utility.yul\":10720:10729   */\n      not\n        /* \"#utility.yul\":10712:10718   */\n      dup5\n        /* \"#utility.yul\":10708:10730   */\n      and\n        /* \"#utility.yul\":10758:10795   */\n      tag_221\n        /* \"#utility.yul\":10790:10794   */\n      dup7\n        /* \"#utility.yul\":10758:10795   */\n      tag_73\n      jump\t// in\n    tag_221:\n        /* \"#utility.yul\":10817:10818   */\n      0x00\n        /* \"#utility.yul\":10831:11039   */\n    tag_222:\n        /* \"#utility.yul\":10845:10852   */\n      dup3\n        /* \"#utility.yul\":10842:10843   */\n      dup2\n        /* \"#utility.yul\":10839:10853   */\n      lt\n        /* \"#utility.yul\":10831:11039   */\n      iszero\n      tag_224\n      jumpi\n        /* \"#utility.yul\":10924:10933   */\n      dup5\n        /* \"#utility.yul\":10919:10922   */\n      dup10\n        /* \"#utility.yul\":10915:10934   */\n      add\n        /* \"#utility.yul\":10909:10935   */\n      mload\n        /* \"#utility.yul\":10901:10907   */\n      dup3\n        /* \"#utility.yul\":10894:10936   */\n      sstore\n        /* \"#utility.yul\":10975:10976   */\n      0x01\n        /* \"#utility.yul\":10967:10973   */\n      dup3\n        /* \"#utility.yul\":10963:10977   */\n      add\n        /* \"#utility.yul\":10953:10977   */\n      swap2\n      pop\n        /* \"#utility.yul\":11022:11024   */\n      0x20\n        /* \"#utility.yul\":11011:11020   */\n      dup6\n        /* \"#utility.yul\":11007:11025   */\n      add\n        /* \"#utility.yul\":10994:11025   */\n      swap5\n      pop\n        /* \"#utility.yul\":10868:10872   */\n      0x20\n        /* \"#utility.yul\":10865:10866   */\n      dup2\n        /* \"#utility.yul\":10861:10873   */\n      add\n        /* \"#utility.yul\":10856:10873   */\n      swap1\n      pop\n        /* \"#utility.yul\":10831:11039   */\n      jump(tag_222)\n    tag_224:\n        /* \"#utility.yul\":11067:11073   */\n      dup7\n        /* \"#utility.yul\":11058:11065   */\n      dup4\n        /* \"#utility.yul\":11055:11074   */\n      lt\n        /* \"#utility.yul\":11052:11231   */\n      iszero\n      tag_225\n      jumpi\n        /* \"#utility.yul\":11125:11134   */\n      dup5\n        /* \"#utility.yul\":11120:11123   */\n      dup10\n        /* \"#utility.yul\":11116:11135   */\n      add\n        /* \"#utility.yul\":11110:11136   */\n      mload\n        /* \"#utility.yul\":11168:11216   */\n      tag_226\n        /* \"#utility.yul\":11210:11214   */\n      0x1f\n        /* \"#utility.yul\":11202:11208   */\n      dup10\n        /* \"#utility.yul\":11198:11215   */\n      and\n        /* \"#utility.yul\":11187:11196   */\n      dup3\n        /* \"#utility.yul\":11168:11216   */\n      tag_87\n      jump\t// in\n    tag_226:\n        /* \"#utility.yul\":11160:11166   */\n      dup4\n        /* \"#utility.yul\":11153:11217   */\n      sstore\n        /* \"#utility.yul\":11075:11231   */\n      pop\n        /* \"#utility.yul\":11052:11231   */\n    tag_225:\n        /* \"#utility.yul\":11277:11278   */\n      0x01\n        /* \"#utility.yul\":11273:11274   */\n      0x02\n        /* \"#utility.yul\":11265:11271   */\n      dup9\n        /* \"#utility.yul\":11261:11275   */\n      mul\n        /* \"#utility.yul\":11257:11279   */\n      add\n        /* \"#utility.yul\":11251:11255   */\n      dup9\n        /* \"#utility.yul\":11244:11280   */\n      sstore\n        /* \"#utility.yul\":10679:11290   */\n      pop\n      pop\n      pop\n        /* \"#utility.yul\":10642:11529   */\n    tag_217:\n      pop\n        /* \"#utility.yul\":10232:11535   */\n      pop\n      pop\n      pop\n        /* \"#utility.yul\":10140:11535   */\n      pop\n      pop\n      jump\t// out\n        /* \"#utility.yul\":11541:11712   */\n    tag_89:\n        /* \"#utility.yul\":11681:11704   */\n      0x43617074636861206973206e6f74206163746976650000000000000000000000\n        /* \"#utility.yul\":11677:11678   */\n      0x00\n        /* \"#utility.yul\":11669:11675   */\n      dup3\n        /* \"#utility.yul\":11665:11679   */\n      add\n        /* \"#utility.yul\":11658:11705   */\n      mstore\n        /* \"#utility.yul\":11541:11712   */\n      pop\n      jump\t// out\n        /* \"#utility.yul\":11718:12084   */\n    tag_90:\n        /* \"#utility.yul\":11860:11863   */\n      0x00\n        /* \"#utility.yul\":11881:11948   */\n      tag_229\n        /* \"#utility.yul\":11945:11947   */\n      0x15\n        /* \"#utility.yul\":11940:11943   */\n      dup4\n        /* \"#utility.yul\":11881:11948   */\n      tag_67\n      jump\t// in\n    tag_229:\n        /* \"#utility.yul\":11874:11948   */\n      swap2\n      pop\n        /* \"#utility.yul\":11957:12050   */\n      tag_230\n        /* \"#utility.yul\":12046:12049   */\n      dup3\n        /* \"#utility.yul\":11957:12050   */\n      tag_89\n      jump\t// in\n    tag_230:\n        /* \"#utility.yul\":12075:12077   */\n      0x20\n        /* \"#utility.yul\":12070:12073   */\n      dup3\n        /* \"#utility.yul\":12066:12078   */\n      add\n        /* \"#utility.yul\":12059:12078   */\n      swap1\n      pop\n        /* \"#utility.yul\":11718:12084   */\n      swap2\n      swap1\n      pop\n      jump\t// out\n        /* \"#utility.yul\":12090:12509   */\n    tag_44:\n        /* \"#utility.yul\":12256:12260   */\n      0x00\n        /* \"#utility.yul\":12294:12296   */\n      0x20\n        /* \"#utility.yul\":12283:12292   */\n      dup3\n        /* \"#utility.yul\":12279:12297   */\n      add\n        /* \"#utility.yul\":12271:12297   */\n      swap1\n      pop\n        /* \"#utility.yul\":12343:12352   */\n      dup2\n        /* \"#utility.yul\":12337:12341   */\n      dup2\n        /* \"#utility.yul\":12333:12353   */\n      sub\n        /* \"#utility.yul\":12329:12330   */\n      0x00\n        /* \"#utility.yul\":12318:12327   */\n      dup4\n        /* \"#utility.yul\":12314:12331   */\n      add\n        /* \"#utility.yul\":12307:12354   */\n      mstore\n        /* \"#utility.yul\":12371:12502   */\n      tag_232\n        /* \"#utility.yul\":12497:12501   */\n      dup2\n        /* \"#utility.yul\":12371:12502   */\n      tag_90\n      jump\t// in\n    tag_232:\n        /* \"#utility.yul\":12363:12502   */\n      swap1\n      pop\n        /* \"#utility.yul\":12090:12509   */\n      swap2\n      swap1\n      pop\n      jump\t// out\n        /* \"#utility.yul\":12515:12663   */\n    tag_91:\n        /* \"#utility.yul\":12617:12628   */\n      0x00\n        /* \"#utility.yul\":12654:12657   */\n      dup2\n        /* \"#utility.yul\":12639:12657   */\n      swap1\n      pop\n        /* \"#utility.yul\":12515:12663   */\n      swap3\n      swap2\n      pop\n      pop\n      jump\t// out\n        /* \"#utility.yul\":12693:13567   */\n    tag_92:\n        /* \"#utility.yul\":12796:12799   */\n      0x00\n        /* \"#utility.yul\":12833:12838   */\n      dup2\n        /* \"#utility.yul\":12827:12839   */\n      sload\n        /* \"#utility.yul\":12862:12898   */\n      tag_235\n        /* \"#utility.yul\":12888:12897   */\n      dup2\n        /* \"#utility.yul\":12862:12898   */\n      tag_30\n      jump\t// in\n    tag_235:\n        /* \"#utility.yul\":12914:13003   */\n      tag_236\n        /* \"#utility.yul\":12996:13002   */\n      dup2\n        /* \"#utility.yul\":12991:12994   */\n      dup7\n        /* \"#utility.yul\":12914:13003   */\n      tag_91\n      jump\t// in\n    tag_236:\n        /* \"#utility.yul\":12907:13003   */\n      swap5\n      pop\n        /* \"#utility.yul\":13034:13035   */\n      0x01\n        /* \"#utility.yul\":13023:13032   */\n      dup3\n        /* \"#utility.yul\":13019:13036   */\n      and\n        /* \"#utility.yul\":13050:13051   */\n      0x00\n        /* \"#utility.yul\":13045:13211   */\n      dup2\n      eq\n      tag_238\n      jumpi\n        /* \"#utility.yul\":13225:13226   */\n      0x01\n        /* \"#utility.yul\":13220:13561   */\n      dup2\n      eq\n      tag_239\n      jumpi\n        /* \"#utility.yul\":13012:13561   */\n      jump(tag_237)\n        /* \"#utility.yul\":13045:13211   */\n    tag_238:\n        /* \"#utility.yul\":13129:13133   */\n      0xff\n        /* \"#utility.yul\":13125:13134   */\n      not\n        /* \"#utility.yul\":13114:13123   */\n      dup4\n        /* \"#utility.yul\":13110:13135   */\n      and\n        /* \"#utility.yul\":13105:13108   */\n      dup7\n        /* \"#utility.yul\":13098:13136   */\n      mstore\n        /* \"#utility.yul\":13191:13197   */\n      dup2\n        /* \"#utility.yul\":13184:13198   */\n      iszero\n        /* \"#utility.yul\":13177:13199   */\n      iszero\n        /* \"#utility.yul\":13169:13175   */\n      dup3\n        /* \"#utility.yul\":13165:13200   */\n      mul\n        /* \"#utility.yul\":13160:13163   */\n      dup7\n        /* \"#utility.yul\":13156:13201   */\n      add\n        /* \"#utility.yul\":13149:13201   */\n      swap4\n      pop\n        /* \"#utility.yul\":13045:13211   */\n      jump(tag_237)\n        /* \"#utility.yul\":13220:13561   */\n    tag_239:\n        /* \"#utility.yul\":13287:13325   */\n      tag_240\n        /* \"#utility.yul\":13319:13324   */\n      dup6\n        /* \"#utility.yul\":13287:13325   */\n      tag_73\n      jump\t// in\n    tag_240:\n        /* \"#utility.yul\":13347:13348   */\n      0x00\n        /* \"#utility.yul\":13361:13515   */\n    tag_241:\n        /* \"#utility.yul\":13375:13381   */\n      dup4\n        /* \"#utility.yul\":13372:13373   */\n      dup2\n        /* \"#utility.yul\":13369:13382   */\n      lt\n        /* \"#utility.yul\":13361:13515   */\n      iszero\n      tag_243\n      jumpi\n        /* \"#utility.yul\":13449:13456   */\n      dup2\n        /* \"#utility.yul\":13443:13457   */\n      sload\n        /* \"#utility.yul\":13439:13440   */\n      dup2\n        /* \"#utility.yul\":13434:13437   */\n      dup10\n        /* \"#utility.yul\":13430:13441   */\n      add\n        /* \"#utility.yul\":13423:13458   */\n      mstore\n        /* \"#utility.yul\":13499:13500   */\n      0x01\n        /* \"#utility.yul\":13490:13497   */\n      dup3\n        /* \"#utility.yul\":13486:13501   */\n      add\n        /* \"#utility.yul\":13475:13501   */\n      swap2\n      pop\n        /* \"#utility.yul\":13397:13401   */\n      0x20\n        /* \"#utility.yul\":13394:13395   */\n      dup2\n        /* \"#utility.yul\":13390:13402   */\n      add\n        /* \"#utility.yul\":13385:13402   */\n      swap1\n      pop\n        /* \"#utility.yul\":13361:13515   */\n      jump(tag_241)\n    tag_243:\n        /* \"#utility.yul\":13544:13550   */\n      dup4\n        /* \"#utility.yul\":13539:13542   */\n      dup9\n        /* \"#utility.yul\":13535:13551   */\n      add\n        /* \"#utility.yul\":13528:13551   */\n      swap6\n      pop\n        /* \"#utility.yul\":13227:13561   */\n      pop\n      pop\n        /* \"#utility.yul\":13012:13561   */\n    tag_237:\n      pop\n        /* \"#utility.yul\":12800:13567   */\n      pop\n      pop\n        /* \"#utility.yul\":12693:13567   */\n      swap3\n      swap2\n      pop\n      pop\n      jump\t// out\n        /* \"#utility.yul\":13573:13842   */\n    tag_46:\n        /* \"#utility.yul\":13702:13705   */\n      0x00\n        /* \"#utility.yul\":13724:13816   */\n      tag_245\n        /* \"#utility.yul\":13812:13815   */\n      dup3\n        /* \"#utility.yul\":13803:13809   */\n      dup5\n        /* \"#utility.yul\":13724:13816   */\n      tag_92\n      jump\t// in\n    tag_245:\n        /* \"#utility.yul\":13717:13816   */\n      swap2\n      pop\n        /* \"#utility.yul\":13833:13836   */\n      dup2\n        /* \"#utility.yul\":13826:13836   */\n      swap1\n      pop\n        /* \"#utility.yul\":13573:13842   */\n      swap3\n      swap2\n      pop\n      pop\n      jump\t// out\n        /* \"#utility.yul\":13848:14238   */\n    tag_93:\n        /* \"#utility.yul\":13954:13957   */\n      0x00\n        /* \"#utility.yul\":13982:14021   */\n      tag_247\n        /* \"#utility.yul\":14015:14020   */\n      dup3\n        /* \"#utility.yul\":13982:14021   */\n      tag_66\n      jump\t// in\n    tag_247:\n        /* \"#utility.yul\":14037:14126   */\n      tag_248\n        /* \"#utility.yul\":14119:14125   */\n      dup2\n        /* \"#utility.yul\":14114:14117   */\n      dup6\n        /* \"#utility.yul\":14037:14126   */\n      tag_91\n      jump\t// in\n    tag_248:\n        /* \"#utility.yul\":14030:14126   */\n      swap4\n      pop\n        /* \"#utility.yul\":14135:14200   */\n      tag_249\n        /* \"#utility.yul\":14193:14199   */\n      dup2\n        /* \"#utility.yul\":14188:14191   */\n      dup6\n        /* \"#utility.yul\":14181:14185   */\n      0x20\n        /* \"#utility.yul\":14174:14179   */\n      dup7\n        /* \"#utility.yul\":14170:14186   */\n      add\n        /* \"#utility.yul\":14135:14200   */\n      tag_68\n      jump\t// in\n    tag_249:\n        /* \"#utility.yul\":14225:14231   */\n      dup1\n        /* \"#utility.yul\":14220:14223   */\n      dup5\n        /* \"#utility.yul\":14216:14232   */\n      add\n        /* \"#utility.yul\":14209:14232   */\n      swap2\n      pop\n        /* \"#utility.yul\":13958:14238   */\n      pop\n        /* \"#utility.yul\":13848:14238   */\n      swap3\n      swap2\n      pop\n      pop\n      jump\t// out\n        /* \"#utility.yul\":14244:14519   */\n    tag_48:\n        /* \"#utility.yul\":14376:14379   */\n      0x00\n        /* \"#utility.yul\":14398:14493   */\n      tag_251\n        /* \"#utility.yul\":14489:14492   */\n      dup3\n        /* \"#utility.yul\":14480:14486   */\n      dup5\n        /* \"#utility.yul\":14398:14493   */\n      tag_93\n      jump\t// in\n    tag_251:\n        /* \"#utility.yul\":14391:14493   */\n      swap2\n      pop\n        /* \"#utility.yul\":14510:14513   */\n      dup2\n        /* \"#utility.yul\":14503:14513   */\n      swap1\n      pop\n        /* \"#utility.yul\":14244:14519   */\n      swap3\n      swap2\n      pop\n      pop\n      jump\t// out\n\n    auxdata: 0xa26469706673582212204bf13d9d63d22bc8623d135841703f0836da413f5c34b01b4676c3cd8355e2cb64736f6c634300081a0033\n}\n",
				"bytecode": {
					"linkReferences": {},
					"object": "6080604052348015600e575f80fd5b50610bba8061001c5f395ff3fe608060405234801561000f575f80fd5b506004361061004a575f3560e01c80636fe2646f1461004e5780637e1693a71461006a5780638eb68a881461009c578063edbb12e4146100a6575b5f80fd5b6100686004803603810190610063919061054c565b6100d6565b005b610084600480360381019061007f919061061c565b610180565b604051610093939291906106c1565b60405180910390f35b6100a46102bd565b005b6100c060048036038101906100bb9190610704565b610315565b6040516100cd919061074b565b60405180910390f35b6040518060600160405280838152602001828152602001600115158152505f803373ffffffffffffffffffffffffffffffffffffffff1673ffffffffffffffffffffffffffffffffffffffff1681526020019081526020015f205f820151815f0190816101439190610967565b5060208201518160010190816101599190610967565b506040820151816002015f6101000a81548160ff0219169083151502179055509050505050565b5f602052805f5260405f205f91509050805f01805461019e90610791565b80601f01602080910402602001604051908101604052809291908181526020018280546101ca90610791565b80156102155780601f106101ec57610100808354040283529160200191610215565b820191905f5260205f20905b8154815290600101906020018083116101f857829003601f168201915b50505050509080600101805461022a90610791565b80601f016020809104026020016040519081016040528092919081815260200182805461025690610791565b80156102a15780601f10610278576101008083540402835291602001916102a1565b820191905f5260205f20905b81548152906001019060200180831161028457829003601f168201915b505050505090806002015f9054906101000a900460ff16905083565b5f805f3373ffffffffffffffffffffffffffffffffffffffff1673ffffffffffffffffffffffffffffffffffffffff1681526020019081526020015f206002015f6101000a81548160ff021916908315150217905550565b5f805f803373ffffffffffffffffffffffffffffffffffffffff1673ffffffffffffffffffffffffffffffffffffffff1681526020019081526020015f209050806002015f9054906101000a900460ff166103a5576040517f08c379a000000000000000000000000000000000000000000000000000000000815260040161039c90610a80565b60405180910390fd5b806001016040516020016103b99190610b28565b60405160208183030381529060405280519060200120836040516020016103e09190610b6e565b6040516020818303038152906040528051906020012014915050919050565b5f604051905090565b5f80fd5b5f80fd5b5f80fd5b5f80fd5b5f601f19601f8301169050919050565b7f4e487b71000000000000000000000000000000000000000000000000000000005f52604160045260245ffd5b61045e82610418565b810181811067ffffffffffffffff8211171561047d5761047c610428565b5b80604052505050565b5f61048f6103ff565b905061049b8282610455565b919050565b5f67ffffffffffffffff8211156104ba576104b9610428565b5b6104c382610418565b9050602081019050919050565b828183375f83830152505050565b5f6104f06104eb846104a0565b610486565b90508281526020810184848401111561050c5761050b610414565b5b6105178482856104d0565b509392505050565b5f82601f83011261053357610532610410565b5b81356105438482602086016104de565b91505092915050565b5f806040838503121561056257610561610408565b5b5f83013567ffffffffffffffff81111561057f5761057e61040c565b5b61058b8582860161051f565b925050602083013567ffffffffffffffff8111156105ac576105ab61040c565b5b6105b88582860161051f565b9150509250929050565b5f73ffffffffffffffffffffffffffffffffffffffff82169050919050565b5f6105eb826105c2565b9050919050565b6105fb816105e1565b8114610605575f80fd5b50565b5f81359050610616816105f2565b92915050565b5f6020828403121561063157610630610408565b5b5f61063e84828501610608565b91505092915050565b5f81519050919050565b5f82825260208201905092915050565b8281835e5f83830152505050565b5f61067982610647565b6106838185610651565b9350610693818560208601610661565b61069c81610418565b840191505092915050565b5f8115159050919050565b6106bb816106a7565b82525050565b5f6060820190508181035f8301526106d9818661066f565b905081810360208301526106ed818561066f565b90506106fc60408301846106b2565b949350505050565b5f6020828403121561071957610718610408565b5b5f82013567ffffffffffffffff8111156107365761073561040c565b5b6107428482850161051f565b91505092915050565b5f60208201905061075e5f8301846106b2565b92915050565b7f4e487b71000000000000000000000000000000000000000000000000000000005f52602260045260245ffd5b5f60028204905060018216806107a857607f821691505b6020821081036107bb576107ba610764565b5b50919050565b5f819050815f5260205f209050919050565b5f6020601f8301049050919050565b5f82821b905092915050565b5f6008830261081d7fffffffffffffffffffffffffffffffffffffffffffffffffffffffffffffffff826107e2565b61082786836107e2565b95508019841693508086168417925050509392505050565b5f819050919050565b5f819050919050565b5f61086b6108666108618461083f565b610848565b61083f565b9050919050565b5f819050919050565b61088483610851565b61089861089082610872565b8484546107ee565b825550505050565b5f90565b6108ac6108a0565b6108b781848461087b565b505050565b5b818110156108da576108cf5f826108a4565b6001810190506108bd565b5050565b601f82111561091f576108f0816107c1565b6108f9846107d3565b81016020851015610908578190505b61091c610914856107d3565b8301826108bc565b50505b505050565b5f82821c905092915050565b5f61093f5f1984600802610924565b1980831691505092915050565b5f6109578383610930565b9150826002028217905092915050565b61097082610647565b67ffffffffffffffff81111561098957610988610428565b5b6109938254610791565b61099e8282856108de565b5f60209050601f8311600181146109cf575f84156109bd578287015190505b6109c7858261094c565b865550610a2e565b601f1984166109dd866107c1565b5f5b82811015610a04578489015182556001820191506020850194506020810190506109df565b86831015610a215784890151610a1d601f891682610930565b8355505b6001600288020188555050505b505050505050565b7f43617074636861206973206e6f742061637469766500000000000000000000005f82015250565b5f610a6a601583610651565b9150610a7582610a36565b602082019050919050565b5f6020820190508181035f830152610a9781610a5e565b9050919050565b5f81905092915050565b5f8154610ab481610791565b610abe8186610a9e565b9450600182165f8114610ad85760018114610aed57610b1f565b60ff1983168652811515820286019350610b1f565b610af6856107c1565b5f5b83811015610b1757815481890152600182019150602081019050610af8565b838801955050505b50505092915050565b5f610b338284610aa8565b915081905092915050565b5f610b4882610647565b610b528185610a9e565b9350610b62818560208601610661565b80840191505092915050565b5f610b798284610b3e565b91508190509291505056fea26469706673582212204bf13d9d63d22bc8623d135841703f0836da413f5c34b01b4676c3cd8355e2cb64736f6c634300081a0033",
					"opcodes": "PUSH1 0x80 PUSH1 0x40 MSTORE CALLVALUE DUP1 ISZERO PUSH1 0xE JUMPI PUSH0 DUP1 REVERT JUMPDEST POP PUSH2 0xBBA DUP1 PUSH2 0x1C PUSH0 CODECOPY PUSH0 RETURN INVALID PUSH1 0x80 PUSH1 0x40 MSTORE CALLVALUE DUP1 ISZERO PUSH2 0xF JUMPI PUSH0 DUP1 REVERT JUMPDEST POP PUSH1 0x4 CALLDATASIZE LT PUSH2 0x4A JUMPI PUSH0 CALLDATALOAD PUSH1 0xE0 SHR DUP1 PUSH4 0x6FE2646F EQ PUSH2 0x4E JUMPI DUP1 PUSH4 0x7E1693A7 EQ PUSH2 0x6A JUMPI DUP1 PUSH4 0x8EB68A88 EQ PUSH2 0x9C JUMPI DUP1 PUSH4 0xEDBB12E4 EQ PUSH2 0xA6 JUMPI JUMPDEST PUSH0 DUP1 REVERT JUMPDEST PUSH2 0x68 PUSH1 0x4 DUP1 CALLDATASIZE SUB DUP2 ADD SWAP1 PUSH2 0x63 SWAP2 SWAP1 PUSH2 0x54C JUMP JUMPDEST PUSH2 0xD6 JUMP JUMPDEST STOP JUMPDEST PUSH2 0x84 PUSH1 0x4 DUP1 CALLDATASIZE SUB DUP2 ADD SWAP1 PUSH2 0x7F SWAP2 SWAP1 PUSH2 0x61C JUMP JUMPDEST PUSH2 0x180 JUMP JUMPDEST PUSH1 0x40 MLOAD PUSH2 0x93 SWAP4 SWAP3 SWAP2 SWAP1 PUSH2 0x6C1 JUMP JUMPDEST PUSH1 0x40 MLOAD DUP1 SWAP2 SUB SWAP1 RETURN JUMPDEST PUSH2 0xA4 PUSH2 0x2BD JUMP JUMPDEST STOP JUMPDEST PUSH2 0xC0 PUSH1 0x4 DUP1 CALLDATASIZE SUB DUP2 ADD SWAP1 PUSH2 0xBB SWAP2 SWAP1 PUSH2 0x704 JUMP JUMPDEST PUSH2 0x315 JUMP JUMPDEST PUSH1 0x40 MLOAD PUSH2 0xCD SWAP2 SWAP1 PUSH2 0x74B JUMP JUMPDEST PUSH1 0x40 MLOAD DUP1 SWAP2 SUB SWAP1 RETURN JUMPDEST PUSH1 0x40 MLOAD DUP1 PUSH1 0x60 ADD PUSH1 0x40 MSTORE DUP1 DUP4 DUP2 MSTORE PUSH1 0x20 ADD DUP3 DUP2 MSTORE PUSH1 0x20 ADD PUSH1 0x1 ISZERO ISZERO DUP2 MSTORE POP PUSH0 DUP1 CALLER PUSH20 0xFFFFFFFFFFFFFFFFFFFFFFFFFFFFFFFFFFFFFFFF AND PUSH20 0xFFFFFFFFFFFFFFFFFFFFFFFFFFFFFFFFFFFFFFFF AND DUP2 MSTORE PUSH1 0x20 ADD SWAP1 DUP2 MSTORE PUSH1 0x20 ADD PUSH0 KECCAK256 PUSH0 DUP3 ADD MLOAD DUP2 PUSH0 ADD SWAP1 DUP2 PUSH2 0x143 SWAP2 SWAP1 PUSH2 0x967 JUMP JUMPDEST POP PUSH1 0x20 DUP3 ADD MLOAD DUP2 PUSH1 0x1 ADD SWAP1 DUP2 PUSH2 0x159 SWAP2 SWAP1 PUSH2 0x967 JUMP JUMPDEST POP PUSH1 0x40 DUP3 ADD MLOAD DUP2 PUSH1 0x2 ADD PUSH0 PUSH2 0x100 EXP DUP2 SLOAD DUP2 PUSH1 0xFF MUL NOT AND SWAP1 DUP4 ISZERO ISZERO MUL OR SWAP1 SSTORE POP SWAP1 POP POP POP POP JUMP JUMPDEST PUSH0 PUSH1 0x20 MSTORE DUP1 PUSH0 MSTORE PUSH1 0x40 PUSH0 KECCAK256 PUSH0 SWAP2 POP SWAP1 POP DUP1 PUSH0 ADD DUP1 SLOAD PUSH2 0x19E SWAP1 PUSH2 0x791 JUMP JUMPDEST DUP1 PUSH1 0x1F ADD PUSH1 0x20 DUP1 SWAP2 DIV MUL PUSH1 0x20 ADD PUSH1 0x40 MLOAD SWAP1 DUP2 ADD PUSH1 0x40 MSTORE DUP1 SWAP3 SWAP2 SWAP1 DUP2 DUP2 MSTORE PUSH1 0x20 ADD DUP3 DUP1 SLOAD PUSH2 0x1CA SWAP1 PUSH2 0x791 JUMP JUMPDEST DUP1 ISZERO PUSH2 0x215 JUMPI DUP1 PUSH1 0x1F LT PUSH2 0x1EC JUMPI PUSH2 0x100 DUP1 DUP4 SLOAD DIV MUL DUP4 MSTORE SWAP2 PUSH1 0x20 ADD SWAP2 PUSH2 0x215 JUMP JUMPDEST DUP3 ADD SWAP2 SWAP1 PUSH0 MSTORE PUSH1 0x20 PUSH0 KECCAK256 SWAP1 JUMPDEST DUP2 SLOAD DUP2 MSTORE SWAP1 PUSH1 0x1 ADD SWAP1 PUSH1 0x20 ADD DUP1 DUP4 GT PUSH2 0x1F8 JUMPI DUP3 SWAP1 SUB PUSH1 0x1F AND DUP3 ADD SWAP2 JUMPDEST POP POP POP POP POP SWAP1 DUP1 PUSH1 0x1 ADD DUP1 SLOAD PUSH2 0x22A SWAP1 PUSH2 0x791 JUMP JUMPDEST DUP1 PUSH1 0x1F ADD PUSH1 0x20 DUP1 SWAP2 DIV MUL PUSH1 0x20 ADD PUSH1 0x40 MLOAD SWAP1 DUP2 ADD PUSH1 0x40 MSTORE DUP1 SWAP3 SWAP2 SWAP1 DUP2 DUP2 MSTORE PUSH1 0x20 ADD DUP3 DUP1 SLOAD PUSH2 0x256 SWAP1 PUSH2 0x791 JUMP JUMPDEST DUP1 ISZERO PUSH2 0x2A1 JUMPI DUP1 PUSH1 0x1F LT PUSH2 0x278 JUMPI PUSH2 0x100 DUP1 DUP4 SLOAD DIV MUL DUP4 MSTORE SWAP2 PUSH1 0x20 ADD SWAP2 PUSH2 0x2A1 JUMP JUMPDEST DUP3 ADD SWAP2 SWAP1 PUSH0 MSTORE PUSH1 0x20 PUSH0 KECCAK256 SWAP1 JUMPDEST DUP2 SLOAD DUP2 MSTORE SWAP1 PUSH1 0x1 ADD SWAP1 PUSH1 0x20 ADD DUP1 DUP4 GT PUSH2 0x284 JUMPI DUP3 SWAP1 SUB PUSH1 0x1F AND DUP3 ADD SWAP2 JUMPDEST POP POP POP POP POP SWAP1 DUP1 PUSH1 0x2 ADD PUSH0 SWAP1 SLOAD SWAP1 PUSH2 0x100 EXP SWAP1 DIV PUSH1 0xFF AND SWAP1 POP DUP4 JUMP JUMPDEST PUSH0 DUP1 PUSH0 CALLER PUSH20 0xFFFFFFFFFFFFFFFFFFFFFFFFFFFFFFFFFFFFFFFF AND PUSH20 0xFFFFFFFFFFFFFFFFFFFFFFFFFFFFFFFFFFFFFFFF AND DUP2 MSTORE PUSH1 0x20 ADD SWAP1 DUP2 MSTORE PUSH1 0x20 ADD PUSH0 KECCAK256 PUSH1 0x2 ADD PUSH0 PUSH2 0x100 EXP DUP2 SLOAD DUP2 PUSH1 0xFF MUL NOT AND SWAP1 DUP4 ISZERO ISZERO MUL OR SWAP1 SSTORE POP JUMP JUMPDEST PUSH0 DUP1 PUSH0 DUP1 CALLER PUSH20 0xFFFFFFFFFFFFFFFFFFFFFFFFFFFFFFFFFFFFFFFF AND PUSH20 0xFFFFFFFFFFFFFFFFFFFFFFFFFFFFFFFFFFFFFFFF AND DUP2 MSTORE PUSH1 0x20 ADD SWAP1 DUP2 MSTORE PUSH1 0x20 ADD PUSH0 KECCAK256 SWAP1 POP DUP1 PUSH1 0x2 ADD PUSH0 SWAP1 SLOAD SWAP1 PUSH2 0x100 EXP SWAP1 DIV PUSH1 0xFF AND PUSH2 0x3A5 JUMPI PUSH1 0x40 MLOAD PUSH32 0x8C379A000000000000000000000000000000000000000000000000000000000 DUP2 MSTORE PUSH1 0x4 ADD PUSH2 0x39C SWAP1 PUSH2 0xA80 JUMP JUMPDEST PUSH1 0x40 MLOAD DUP1 SWAP2 SUB SWAP1 REVERT JUMPDEST DUP1 PUSH1 0x1 ADD PUSH1 0x40 MLOAD PUSH1 0x20 ADD PUSH2 0x3B9 SWAP2 SWAP1 PUSH2 0xB28 JUMP JUMPDEST PUSH1 0x40 MLOAD PUSH1 0x20 DUP2 DUP4 SUB SUB DUP2 MSTORE SWAP1 PUSH1 0x40 MSTORE DUP1 MLOAD SWAP1 PUSH1 0x20 ADD KECCAK256 DUP4 PUSH1 0x40 MLOAD PUSH1 0x20 ADD PUSH2 0x3E0 SWAP2 SWAP1 PUSH2 0xB6E JUMP JUMPDEST PUSH1 0x40 MLOAD PUSH1 0x20 DUP2 DUP4 SUB SUB DUP2 MSTORE SWAP1 PUSH1 0x40 MSTORE DUP1 MLOAD SWAP1 PUSH1 0x20 ADD KECCAK256 EQ SWAP2 POP POP SWAP2 SWAP1 POP JUMP JUMPDEST PUSH0 PUSH1 0x40 MLOAD SWAP1 POP SWAP1 JUMP JUMPDEST PUSH0 DUP1 REVERT JUMPDEST PUSH0 DUP1 REVERT JUMPDEST PUSH0 DUP1 REVERT JUMPDEST PUSH0 DUP1 REVERT JUMPDEST PUSH0 PUSH1 0x1F NOT PUSH1 0x1F DUP4 ADD AND SWAP1 POP SWAP2 SWAP1 POP JUMP JUMPDEST PUSH32 0x4E487B7100000000000000000000000000000000000000000000000000000000 PUSH0 MSTORE PUSH1 0x41 PUSH1 0x4 MSTORE PUSH1 0x24 PUSH0 REVERT JUMPDEST PUSH2 0x45E DUP3 PUSH2 0x418 JUMP JUMPDEST DUP2 ADD DUP2 DUP2 LT PUSH8 0xFFFFFFFFFFFFFFFF DUP3 GT OR ISZERO PUSH2 0x47D JUMPI PUSH2 0x47C PUSH2 0x428 JUMP JUMPDEST JUMPDEST DUP1 PUSH1 0x40 MSTORE POP POP POP JUMP JUMPDEST PUSH0 PUSH2 0x48F PUSH2 0x3FF JUMP JUMPDEST SWAP1 POP PUSH2 0x49B DUP3 DUP3 PUSH2 0x455 JUMP JUMPDEST SWAP2 SWAP1 POP JUMP JUMPDEST PUSH0 PUSH8 0xFFFFFFFFFFFFFFFF DUP3 GT ISZERO PUSH2 0x4BA JUMPI PUSH2 0x4B9 PUSH2 0x428 JUMP JUMPDEST JUMPDEST PUSH2 0x4C3 DUP3 PUSH2 0x418 JUMP JUMPDEST SWAP1 POP PUSH1 0x20 DUP2 ADD SWAP1 POP SWAP2 SWAP1 POP JUMP JUMPDEST DUP3 DUP2 DUP4 CALLDATACOPY PUSH0 DUP4 DUP4 ADD MSTORE POP POP POP JUMP JUMPDEST PUSH0 PUSH2 0x4F0 PUSH2 0x4EB DUP5 PUSH2 0x4A0 JUMP JUMPDEST PUSH2 0x486 JUMP JUMPDEST SWAP1 POP DUP3 DUP2 MSTORE PUSH1 0x20 DUP2 ADD DUP5 DUP5 DUP5 ADD GT ISZERO PUSH2 0x50C JUMPI PUSH2 0x50B PUSH2 0x414 JUMP JUMPDEST JUMPDEST PUSH2 0x517 DUP5 DUP3 DUP6 PUSH2 0x4D0 JUMP JUMPDEST POP SWAP4 SWAP3 POP POP POP JUMP JUMPDEST PUSH0 DUP3 PUSH1 0x1F DUP4 ADD SLT PUSH2 0x533 JUMPI PUSH2 0x532 PUSH2 0x410 JUMP JUMPDEST JUMPDEST DUP2 CALLDATALOAD PUSH2 0x543 DUP5 DUP3 PUSH1 0x20 DUP7 ADD PUSH2 0x4DE JUMP JUMPDEST SWAP2 POP POP SWAP3 SWAP2 POP POP JUMP JUMPDEST PUSH0 DUP1 PUSH1 0x40 DUP4 DUP6 SUB SLT ISZERO PUSH2 0x562 JUMPI PUSH2 0x561 PUSH2 0x408 JUMP JUMPDEST JUMPDEST PUSH0 DUP4 ADD CALLDATALOAD PUSH8 0xFFFFFFFFFFFFFFFF DUP2 GT ISZERO PUSH2 0x57F JUMPI PUSH2 0x57E PUSH2 0x40C JUMP JUMPDEST JUMPDEST PUSH2 0x58B DUP6 DUP3 DUP7 ADD PUSH2 0x51F JUMP JUMPDEST SWAP3 POP POP PUSH1 0x20 DUP4 ADD CALLDATALOAD PUSH8 0xFFFFFFFFFFFFFFFF DUP2 GT ISZERO PUSH2 0x5AC JUMPI PUSH2 0x5AB PUSH2 0x40C JUMP JUMPDEST JUMPDEST PUSH2 0x5B8 DUP6 DUP3 DUP7 ADD PUSH2 0x51F JUMP JUMPDEST SWAP2 POP POP SWAP3 POP SWAP3 SWAP1 POP JUMP JUMPDEST PUSH0 PUSH20 0xFFFFFFFFFFFFFFFFFFFFFFFFFFFFFFFFFFFFFFFF DUP3 AND SWAP1 POP SWAP2 SWAP1 POP JUMP JUMPDEST PUSH0 PUSH2 0x5EB DUP3 PUSH2 0x5C2 JUMP JUMPDEST SWAP1 POP SWAP2 SWAP1 POP JUMP JUMPDEST PUSH2 0x5FB DUP2 PUSH2 0x5E1 JUMP JUMPDEST DUP2 EQ PUSH2 0x605 JUMPI PUSH0 DUP1 REVERT JUMPDEST POP JUMP JUMPDEST PUSH0 DUP2 CALLDATALOAD SWAP1 POP PUSH2 0x616 DUP2 PUSH2 0x5F2 JUMP JUMPDEST SWAP3 SWAP2 POP POP JUMP JUMPDEST PUSH0 PUSH1 0x20 DUP3 DUP5 SUB SLT ISZERO PUSH2 0x631 JUMPI PUSH2 0x630 PUSH2 0x408 JUMP JUMPDEST JUMPDEST PUSH0 PUSH2 0x63E DUP5 DUP3 DUP6 ADD PUSH2 0x608 JUMP JUMPDEST SWAP2 POP POP SWAP3 SWAP2 POP POP JUMP JUMPDEST PUSH0 DUP2 MLOAD SWAP1 POP SWAP2 SWAP1 POP JUMP JUMPDEST PUSH0 DUP3 DUP3 MSTORE PUSH1 0x20 DUP3 ADD SWAP1 POP SWAP3 SWAP2 POP POP JUMP JUMPDEST DUP3 DUP2 DUP4 MCOPY PUSH0 DUP4 DUP4 ADD MSTORE POP POP POP JUMP JUMPDEST PUSH0 PUSH2 0x679 DUP3 PUSH2 0x647 JUMP JUMPDEST PUSH2 0x683 DUP2 DUP6 PUSH2 0x651 JUMP JUMPDEST SWAP4 POP PUSH2 0x693 DUP2 DUP6 PUSH1 0x20 DUP7 ADD PUSH2 0x661 JUMP JUMPDEST PUSH2 0x69C DUP2 PUSH2 0x418 JUMP JUMPDEST DUP5 ADD SWAP2 POP POP SWAP3 SWAP2 POP POP JUMP JUMPDEST PUSH0 DUP2 ISZERO ISZERO SWAP1 POP SWAP2 SWAP1 POP JUMP JUMPDEST PUSH2 0x6BB DUP2 PUSH2 0x6A7 JUMP JUMPDEST DUP3 MSTORE POP POP JUMP JUMPDEST PUSH0 PUSH1 0x60 DUP3 ADD SWAP1 POP DUP2 DUP2 SUB PUSH0 DUP4 ADD MSTORE PUSH2 0x6D9 DUP2 DUP7 PUSH2 0x66F JUMP JUMPDEST SWAP1 POP DUP2 DUP2 SUB PUSH1 0x20 DUP4 ADD MSTORE PUSH2 0x6ED DUP2 DUP6 PUSH2 0x66F JUMP JUMPDEST SWAP1 POP PUSH2 0x6FC PUSH1 0x40 DUP4 ADD DUP5 PUSH2 0x6B2 JUMP JUMPDEST SWAP5 SWAP4 POP POP POP POP JUMP JUMPDEST PUSH0 PUSH1 0x20 DUP3 DUP5 SUB SLT ISZERO PUSH2 0x719 JUMPI PUSH2 0x718 PUSH2 0x408 JUMP JUMPDEST JUMPDEST PUSH0 DUP3 ADD CALLDATALOAD PUSH8 0xFFFFFFFFFFFFFFFF DUP2 GT ISZERO PUSH2 0x736 JUMPI PUSH2 0x735 PUSH2 0x40C JUMP JUMPDEST JUMPDEST PUSH2 0x742 DUP5 DUP3 DUP6 ADD PUSH2 0x51F JUMP JUMPDEST SWAP2 POP POP SWAP3 SWAP2 POP POP JUMP JUMPDEST PUSH0 PUSH1 0x20 DUP3 ADD SWAP1 POP PUSH2 0x75E PUSH0 DUP4 ADD DUP5 PUSH2 0x6B2 JUMP JUMPDEST SWAP3 SWAP2 POP POP JUMP JUMPDEST PUSH32 0x4E487B7100000000000000000000000000000000000000000000000000000000 PUSH0 MSTORE PUSH1 0x22 PUSH1 0x4 MSTORE PUSH1 0x24 PUSH0 REVERT JUMPDEST PUSH0 PUSH1 0x2 DUP3 DIV SWAP1 POP PUSH1 0x1 DUP3 AND DUP1 PUSH2 0x7A8 JUMPI PUSH1 0x7F DUP3 AND SWAP2 POP JUMPDEST PUSH1 0x20 DUP3 LT DUP2 SUB PUSH2 0x7BB JUMPI PUSH2 0x7BA PUSH2 0x764 JUMP JUMPDEST JUMPDEST POP SWAP2 SWAP1 POP JUMP JUMPDEST PUSH0 DUP2 SWAP1 POP DUP2 PUSH0 MSTORE PUSH1 0x20 PUSH0 KECCAK256 SWAP1 POP SWAP2 SWAP1 POP JUMP JUMPDEST PUSH0 PUSH1 0x20 PUSH1 0x1F DUP4 ADD DIV SWAP1 POP SWAP2 SWAP1 POP JUMP JUMPDEST PUSH0 DUP3 DUP3 SHL SWAP1 POP SWAP3 SWAP2 POP POP JUMP JUMPDEST PUSH0 PUSH1 0x8 DUP4 MUL PUSH2 0x81D PUSH32 0xFFFFFFFFFFFFFFFFFFFFFFFFFFFFFFFFFFFFFFFFFFFFFFFFFFFFFFFFFFFFFFFF DUP3 PUSH2 0x7E2 JUMP JUMPDEST PUSH2 0x827 DUP7 DUP4 PUSH2 0x7E2 JUMP JUMPDEST SWAP6 POP DUP1 NOT DUP5 AND SWAP4 POP DUP1 DUP7 AND DUP5 OR SWAP3 POP POP POP SWAP4 SWAP3 POP POP POP JUMP JUMPDEST PUSH0 DUP2 SWAP1 POP SWAP2 SWAP1 POP JUMP JUMPDEST PUSH0 DUP2 SWAP1 POP SWAP2 SWAP1 POP JUMP JUMPDEST PUSH0 PUSH2 0x86B PUSH2 0x866 PUSH2 0x861 DUP5 PUSH2 0x83F JUMP JUMPDEST PUSH2 0x848 JUMP JUMPDEST PUSH2 0x83F JUMP JUMPDEST SWAP1 POP SWAP2 SWAP1 POP JUMP JUMPDEST PUSH0 DUP2 SWAP1 POP SWAP2 SWAP1 POP JUMP JUMPDEST PUSH2 0x884 DUP4 PUSH2 0x851 JUMP JUMPDEST PUSH2 0x898 PUSH2 0x890 DUP3 PUSH2 0x872 JUMP JUMPDEST DUP5 DUP5 SLOAD PUSH2 0x7EE JUMP JUMPDEST DUP3 SSTORE POP POP POP POP JUMP JUMPDEST PUSH0 SWAP1 JUMP JUMPDEST PUSH2 0x8AC PUSH2 0x8A0 JUMP JUMPDEST PUSH2 0x8B7 DUP2 DUP5 DUP5 PUSH2 0x87B JUMP JUMPDEST POP POP POP JUMP JUMPDEST JUMPDEST DUP2 DUP2 LT ISZERO PUSH2 0x8DA JUMPI PUSH2 0x8CF PUSH0 DUP3 PUSH2 0x8A4 JUMP JUMPDEST PUSH1 0x1 DUP2 ADD SWAP1 POP PUSH2 0x8BD JUMP JUMPDEST POP POP JUMP JUMPDEST PUSH1 0x1F DUP3 GT ISZERO PUSH2 0x91F JUMPI PUSH2 0x8F0 DUP2 PUSH2 0x7C1 JUMP JUMPDEST PUSH2 0x8F9 DUP5 PUSH2 0x7D3 JUMP JUMPDEST DUP2 ADD PUSH1 0x20 DUP6 LT ISZERO PUSH2 0x908 JUMPI DUP2 SWAP1 POP JUMPDEST PUSH2 0x91C PUSH2 0x914 DUP6 PUSH2 0x7D3 JUMP JUMPDEST DUP4 ADD DUP3 PUSH2 0x8BC JUMP JUMPDEST POP POP JUMPDEST POP POP POP JUMP JUMPDEST PUSH0 DUP3 DUP3 SHR SWAP1 POP SWAP3 SWAP2 POP POP JUMP JUMPDEST PUSH0 PUSH2 0x93F PUSH0 NOT DUP5 PUSH1 0x8 MUL PUSH2 0x924 JUMP JUMPDEST NOT DUP1 DUP4 AND SWAP2 POP POP SWAP3 SWAP2 POP POP JUMP JUMPDEST PUSH0 PUSH2 0x957 DUP4 DUP4 PUSH2 0x930 JUMP JUMPDEST SWAP2 POP DUP3 PUSH1 0x2 MUL DUP3 OR SWAP1 POP SWAP3 SWAP2 POP POP JUMP JUMPDEST PUSH2 0x970 DUP3 PUSH2 0x647 JUMP JUMPDEST PUSH8 0xFFFFFFFFFFFFFFFF DUP2 GT ISZERO PUSH2 0x989 JUMPI PUSH2 0x988 PUSH2 0x428 JUMP JUMPDEST JUMPDEST PUSH2 0x993 DUP3 SLOAD PUSH2 0x791 JUMP JUMPDEST PUSH2 0x99E DUP3 DUP3 DUP6 PUSH2 0x8DE JUMP JUMPDEST PUSH0 PUSH1 0x20 SWAP1 POP PUSH1 0x1F DUP4 GT PUSH1 0x1 DUP2 EQ PUSH2 0x9CF JUMPI PUSH0 DUP5 ISZERO PUSH2 0x9BD JUMPI DUP3 DUP8 ADD MLOAD SWAP1 POP JUMPDEST PUSH2 0x9C7 DUP6 DUP3 PUSH2 0x94C JUMP JUMPDEST DUP7 SSTORE POP PUSH2 0xA2E JUMP JUMPDEST PUSH1 0x1F NOT DUP5 AND PUSH2 0x9DD DUP7 PUSH2 0x7C1 JUMP JUMPDEST PUSH0 JUMPDEST DUP3 DUP2 LT ISZERO PUSH2 0xA04 JUMPI DUP5 DUP10 ADD MLOAD DUP3 SSTORE PUSH1 0x1 DUP3 ADD SWAP2 POP PUSH1 0x20 DUP6 ADD SWAP5 POP PUSH1 0x20 DUP2 ADD SWAP1 POP PUSH2 0x9DF JUMP JUMPDEST DUP7 DUP4 LT ISZERO PUSH2 0xA21 JUMPI DUP5 DUP10 ADD MLOAD PUSH2 0xA1D PUSH1 0x1F DUP10 AND DUP3 PUSH2 0x930 JUMP JUMPDEST DUP4 SSTORE POP JUMPDEST PUSH1 0x1 PUSH1 0x2 DUP9 MUL ADD DUP9 SSTORE POP POP POP JUMPDEST POP POP POP POP POP POP JUMP JUMPDEST PUSH32 0x43617074636861206973206E6F74206163746976650000000000000000000000 PUSH0 DUP3 ADD MSTORE POP JUMP JUMPDEST PUSH0 PUSH2 0xA6A PUSH1 0x15 DUP4 PUSH2 0x651 JUMP JUMPDEST SWAP2 POP PUSH2 0xA75 DUP3 PUSH2 0xA36 JUMP JUMPDEST PUSH1 0x20 DUP3 ADD SWAP1 POP SWAP2 SWAP1 POP JUMP JUMPDEST PUSH0 PUSH1 0x20 DUP3 ADD SWAP1 POP DUP2 DUP2 SUB PUSH0 DUP4 ADD MSTORE PUSH2 0xA97 DUP2 PUSH2 0xA5E JUMP JUMPDEST SWAP1 POP SWAP2 SWAP1 POP JUMP JUMPDEST PUSH0 DUP2 SWAP1 POP SWAP3 SWAP2 POP POP JUMP JUMPDEST PUSH0 DUP2 SLOAD PUSH2 0xAB4 DUP2 PUSH2 0x791 JUMP JUMPDEST PUSH2 0xABE DUP2 DUP7 PUSH2 0xA9E JUMP JUMPDEST SWAP5 POP PUSH1 0x1 DUP3 AND PUSH0 DUP2 EQ PUSH2 0xAD8 JUMPI PUSH1 0x1 DUP2 EQ PUSH2 0xAED JUMPI PUSH2 0xB1F JUMP JUMPDEST PUSH1 0xFF NOT DUP4 AND DUP7 MSTORE DUP2 ISZERO ISZERO DUP3 MUL DUP7 ADD SWAP4 POP PUSH2 0xB1F JUMP JUMPDEST PUSH2 0xAF6 DUP6 PUSH2 0x7C1 JUMP JUMPDEST PUSH0 JUMPDEST DUP4 DUP2 LT ISZERO PUSH2 0xB17 JUMPI DUP2 SLOAD DUP2 DUP10 ADD MSTORE PUSH1 0x1 DUP3 ADD SWAP2 POP PUSH1 0x20 DUP2 ADD SWAP1 POP PUSH2 0xAF8 JUMP JUMPDEST DUP4 DUP9 ADD SWAP6 POP POP POP JUMPDEST POP POP POP SWAP3 SWAP2 POP POP JUMP JUMPDEST PUSH0 PUSH2 0xB33 DUP3 DUP5 PUSH2 0xAA8 JUMP JUMPDEST SWAP2 POP DUP2 SWAP1 POP SWAP3 SWAP2 POP POP JUMP JUMPDEST PUSH0 PUSH2 0xB48 DUP3 PUSH2 0x647 JUMP JUMPDEST PUSH2 0xB52 DUP2 DUP6 PUSH2 0xA9E JUMP JUMPDEST SWAP4 POP PUSH2 0xB62 DUP2 DUP6 PUSH1 0x20 DUP7 ADD PUSH2 0x661 JUMP JUMPDEST DUP1 DUP5 ADD SWAP2 POP POP SWAP3 SWAP2 POP POP JUMP JUMPDEST PUSH0 PUSH2 0xB79 DUP3 DUP5 PUSH2 0xB3E JUMP JUMPDEST SWAP2 POP DUP2 SWAP1 POP SWAP3 SWAP2 POP POP JUMP INVALID LOG2 PUSH5 0x6970667358 0x22 SLT KECCAK256 0x4B CALL RETURNDATASIZE SWAP14 PUSH4 0xD22BC862 RETURNDATASIZE SGT PC COINBASE PUSH17 0x3F0836DA413F5C34B01B4676C3CD8355E2 0xCB PUSH5 0x736F6C6343 STOP ADDMOD BYTE STOP CALLER "
				},
				"gasEstimates": {
					"creation": {
						"codeDepositCost": "600400",
						"executionCost": "630",
						"totalCost": "601030"
					},
					"external": {
						"captchas(address)": "infinite",
						"createCaptcha(string,string)": "infinite",
						"deactivateCaptcha()": "24523",
						"verifyCaptcha(string)": "infinite"
					}
				},
				"methodIdentifiers": {
					"captchas(address)": "7e1693a7",
					"createCaptcha(string,string)": "6fe2646f",
					"deactivateCaptcha()": "8eb68a88",
					"verifyCaptcha(string)": "edbb12e4"
				}
			},
			"storageLayout": {
				"storage": [
					{
						"astId": 13,
						"contract": "contracts/captchaVerfier.sol:CaptchaVerifier",
						"label": "captchas",
						"offset": 0,
						"slot": "0",
						"type": "t_mapping(t_address,t_struct(Captcha)8_storage)"
					}
				],
				"types": {
					"t_address": {
						"encoding": "inplace",
						"label": "address",
						"numberOfBytes": "20"
					},
					"t_bool": {
						"encoding": "inplace",
						"label": "bool",
						"numberOfBytes": "1"
					},
					"t_mapping(t_address,t_struct(Captcha)8_storage)": {
						"encoding": "mapping",
						"key": "t_address",
						"label": "mapping(address => struct CaptchaVerifier.Captcha)",
						"numberOfBytes": "32",
						"value": "t_struct(Captcha)8_storage"
					},
					"t_string_storage": {
						"encoding": "bytes",
						"label": "string",
						"numberOfBytes": "32"
					},
					"t_struct(Captcha)8_storage": {
						"encoding": "inplace",
						"label": "struct CaptchaVerifier.Captcha",
						"members": [
							{
								"astId": 3,
								"contract": "contracts/captchaVerfier.sol:CaptchaVerifier",
								"label": "question",
								"offset": 0,
								"slot": "0",
								"type": "t_string_storage"
							},
							{
								"astId": 5,
								"contract": "contracts/captchaVerfier.sol:CaptchaVerifier",
								"label": "answerHash",
								"offset": 0,
								"slot": "1",
								"type": "t_string_storage"
							},
							{
								"astId": 7,
								"contract": "contracts/captchaVerfier.sol:CaptchaVerifier",
								"label": "isActive",
								"offset": 0,
								"slot": "2",
								"type": "t_bool"
							}
						],
						"numberOfBytes": "96"
					}
				}
			},
			"userdoc": {
				"kind": "user",
				"methods": {},
				"version": 1
			}
		}
	}
}